{
  "contracts/Auction.sol": {
    "Auction": {
      "abi": [
        {
          "inputs": [
            {
              "internalType": "address",
              "name": "_nft",
              "type": "address"
            },
            {
              "internalType": "uint256",
              "name": "_tokenId",
              "type": "uint256"
            }
          ],
          "name": "bid",
          "outputs": [],
          "stateMutability": "payable",
          "type": "function"
        },
        {
          "inputs": [
            {
              "internalType": "address",
              "name": "",
              "type": "address"
            },
            {
              "internalType": "uint256",
              "name": "",
              "type": "uint256"
            },
            {
              "internalType": "address",
              "name": "",
              "type": "address"
            }
          ],
          "name": "bids",
          "outputs": [
            {
              "internalType": "uint256",
              "name": "",
              "type": "uint256"
            }
          ],
          "stateMutability": "view",
          "type": "function"
        },
        {
          "inputs": [
            {
              "internalType": "address",
              "name": "_nft",
              "type": "address"
            },
            {
              "internalType": "uint256",
              "name": "_tokenId",
              "type": "uint256"
            }
          ],
          "name": "cancelAuction",
          "outputs": [],
          "stateMutability": "nonpayable",
          "type": "function"
        },
        {
          "inputs": [
            {
              "internalType": "address",
              "name": "_nft",
              "type": "address"
            },
            {
              "internalType": "uint256",
              "name": "_tokenId",
              "type": "uint256"
            },
            {
              "internalType": "uint128",
              "name": "_price",
              "type": "uint128"
            },
            {
              "internalType": "uint256",
              "name": "_duration",
              "type": "uint256"
            }
          ],
          "name": "createTokenAuction",
          "outputs": [],
          "stateMutability": "nonpayable",
          "type": "function"
        },
        {
          "inputs": [
            {
              "internalType": "address",
              "name": "_nft",
              "type": "address"
            },
            {
              "internalType": "uint256",
              "name": "_tokenId",
              "type": "uint256"
            }
          ],
          "name": "executeSale",
          "outputs": [],
          "stateMutability": "nonpayable",
          "type": "function"
        },
        {
          "inputs": [
            {
              "internalType": "address",
              "name": "_nft",
              "type": "address"
            },
            {
              "internalType": "uint256",
              "name": "_tokenId",
              "type": "uint256"
            }
          ],
          "name": "getTokenAuctionDetails",
          "outputs": [
            {
              "components": [
                {
                  "internalType": "address",
                  "name": "seller",
                  "type": "address"
                },
                {
                  "internalType": "uint128",
                  "name": "price",
                  "type": "uint128"
                },
                {
                  "internalType": "uint256",
                  "name": "duration",
                  "type": "uint256"
                },
                {
                  "internalType": "uint256",
                  "name": "maxBid",
                  "type": "uint256"
                },
                {
                  "internalType": "address",
                  "name": "maxBidUser",
                  "type": "address"
                },
                {
                  "internalType": "bool",
                  "name": "isActive",
                  "type": "bool"
                },
                {
                  "internalType": "uint256[]",
                  "name": "bidAmounts",
                  "type": "uint256[]"
                },
                {
                  "internalType": "address[]",
                  "name": "users",
                  "type": "address[]"
                }
              ],
              "internalType": "struct Auction.tokenDetails",
              "name": "",
              "type": "tuple"
            }
          ],
          "stateMutability": "view",
          "type": "function"
        },
        {
          "inputs": [
            {
              "internalType": "address",
              "name": "",
              "type": "address"
            },
            {
              "internalType": "address",
              "name": "",
              "type": "address"
            },
            {
              "internalType": "uint256",
              "name": "",
              "type": "uint256"
            },
            {
              "internalType": "bytes",
              "name": "",
              "type": "bytes"
            }
          ],
          "name": "onERC721Received",
          "outputs": [
            {
              "internalType": "bytes4",
              "name": "",
              "type": "bytes4"
            }
          ],
          "stateMutability": "nonpayable",
          "type": "function"
        },
        {
          "inputs": [
            {
              "internalType": "address",
              "name": "",
              "type": "address"
            },
            {
              "internalType": "uint256",
              "name": "",
              "type": "uint256"
            }
          ],
          "name": "tokenToAuction",
          "outputs": [
            {
              "internalType": "address",
              "name": "seller",
              "type": "address"
            },
            {
              "internalType": "uint128",
              "name": "price",
              "type": "uint128"
            },
            {
              "internalType": "uint256",
              "name": "duration",
              "type": "uint256"
            },
            {
              "internalType": "uint256",
              "name": "maxBid",
              "type": "uint256"
            },
            {
              "internalType": "address",
              "name": "maxBidUser",
              "type": "address"
            },
            {
              "internalType": "bool",
              "name": "isActive",
              "type": "bool"
            }
          ],
          "stateMutability": "view",
          "type": "function"
        },
        {
          "stateMutability": "payable",
          "type": "receive"
        }
      ],
      "evm": {
        "bytecode": {
          "linkReferences": {},
          "object": "608060405234801561001057600080fd5b5061145c806100206000396000f3fe60806040526004361061007f5760003560e01c80637bed72321161004e5780637bed723214610135578063859b97fe14610155578063cf680c6914610175578063dd7689221461019557610086565b8063150b7a021461008b57806359d667a5146100c1578063722565c5146100d65780637792ba5f1461010357610086565b3661008657005b600080fd5b34801561009757600080fd5b506100ab6100a6366004610ed3565b6101c2565b6040516100b8919061111a565b60405180910390f35b6100d46100cf366004610f69565b6101ec565b005b3480156100e257600080fd5b506100f66100f1366004610f69565b610462565b6040516100b89190611331565b34801561010f57600080fd5b5061012361011e366004610f69565b6105a4565b6040516100b8969594939291906110d6565b34801561014157600080fd5b506100d4610150366004610f69565b6105fc565b34801561016157600080fd5b506100d4610170366004610f69565b61096c565b34801561018157600080fd5b506100d4610190366004610fcd565b610b44565b3480156101a157600080fd5b506101b56101b0366004610f92565b610d7d565b6040516100b891906113d5565b7f150b7a023d4804d13e8c85fb27262cb750cf6ba9f9dd3bb30d90f482ceeb4b1f95945050505050565b6001600160a01b038216600090815260208181526040808320848452909152902060018101546001600160801b03163410156102435760405162461bcd60e51b815260040161023a906112c1565b60405180910390fd5b6004810154600160a01b900460ff1661026e5760405162461bcd60e51b815260040161023a90611305565b428160020154116102915760405162461bcd60e51b815260040161023a9061128a565b6001600160a01b038316600090815260016020908152604080832085845282528083203384529091529020541561034c576001600160a01b038316600090815260016020908152604080832085845282528083203380855292528083205490516102fa906110af565b60006040518083038185875af1925050503d8060008114610337576040519150601f19603f3d011682016040523d82523d6000602084013e61033c565b606091505b505090508061034a57600080fd5b505b6001600160a01b03831660009081526001602090815260408083208584528252808320338452909152902034905560058101546103a2573460038201556004810180546001600160a01b03191633179055610420565b60058101546000906103b6906001906113de565b9050348260050182815481106103dc57634e487b7160e01b600052603260045260246000fd5b9060005260206000200154106104045760405162461bcd60e51b815260040161023a9061115f565b503460038201556004810180546001600160a01b031916331790555b600681018054600181810183556000928352602080842090920180546001600160a01b0319163317905560059093018054938401815582529020349101555050565b61046a610da0565b6001600160a01b03838116600090815260208181526040808320868452825280832081516101008101835281548616815260018201546001600160801b0316818501526002820154818401526003820154606082015260048201549586166080820152600160a01b90950460ff16151560a0860152600581018054835181860281018601909452808452949594919360c0860193929083018282801561052f57602002820191906000526020600020905b81548152602001906001019080831161051b575b505050505081526020016006820180548060200260200160405190810160405280929190818152602001828054801561059157602002820191906000526020600020905b81546001600160a01b03168152600190910190602001808311610573575b5050509190925250919695505050505050565b6000602081815292815260408082209093529081522080546001820154600283015460038401546004909401546001600160a01b03938416946001600160801b0390931693919291811690600160a01b900460ff1686565b6001600160a01b038216600090815260208181526040808320848452909152902060028101544210156106415760405162461bcd60e51b815260040161023a9061122f565b80546001600160a01b0316331461066a5760405162461bcd60e51b815260040161023a90611266565b6004810154600160a01b900460ff166106955760405162461bcd60e51b815260040161023a90611305565b60048101805460ff60a01b191690556005810154610717578054604051632142170760e11b81526001600160a01b03808616926342842e0e926106e0923092169087906004016110b2565b600060405180830381600087803b1580156106fa57600080fd5b505af115801561070e573d6000803e3d6000fd5b50505050610967565b805460038201546040516000926001600160a01b03169190610738906110af565b60006040518083038185875af1925050503d8060008114610775576040519150601f19603f3d011682016040523d82523d6000602084013e61077a565b606091505b505090508061078857600080fd5b60005b60068301548110156108fb5760048301546006840180546001600160a01b0390921691839081106107cc57634e487b7160e01b600052603260045260246000fd5b6000918252602090912001546001600160a01b0316146108e95782600601818154811061080957634e487b7160e01b600052603260045260246000fd5b60009182526020808320909101546001600160a01b038881168452600183526040808520898652909352918320600687018054939092169390929091908590811061086457634e487b7160e01b600052603260045260246000fd5b60009182526020808320909101546001600160a01b031683528201929092526040908101909120549051610897906110af565b60006040518083038185875af1925050503d80600081146108d4576040519150601f19603f3d011682016040523d82523d6000602084013e6108d9565b606091505b505080925050816108e957600080fd5b806108f3816113f5565b91505061078b565b50600482810154604051632142170760e11b81526001600160a01b03878116936342842e0e93610933933093909116918991016110b2565b600060405180830381600087803b15801561094d57600080fd5b505af1158015610961573d6000803e3d6000fd5b50505050505b505050565b6001600160a01b038083166000908152602081815260408083208584529091529020805490911633146109b15760405162461bcd60e51b815260040161023a90611266565b6004810154600160a01b900460ff166109dc5760405162461bcd60e51b815260040161023a90611305565b60048101805460ff60a01b191690556000805b6006830154811015610b1057826006018181548110610a1e57634e487b7160e01b600052603260045260246000fd5b60009182526020808320909101546001600160a01b0388811684526001835260408085208986529093529183206006870180549390921693909290919085908110610a7957634e487b7160e01b600052603260045260246000fd5b60009182526020808320909101546001600160a01b031683528201929092526040908101909120549051610aac906110af565b60006040518083038185875af1925050503d8060008114610ae9576040519150601f19603f3d011682016040523d82523d6000602084013e610aee565b606091505b50508092505081610afe57600080fd5b80610b08816113f5565b9150506109ef565b508154604051632142170760e11b81526001600160a01b03808716926342842e0e92610933923092169088906004016110b2565b33610b615760405162461bcd60e51b815260040161023a90611206565b6001600160a01b038416610b875760405162461bcd60e51b815260040161023a906111dd565b6000826001600160801b031611610bb05760405162461bcd60e51b815260040161023a906111a6565b60008111610bd05760405162461bcd60e51b815260040161023a9061112f565b6040805161010081018252338082526001600160801b03851660208084019190915282840185905260006060840181905260808401819052600160a08501528451818152808301865260c08501528451908152908101845260e08301529151632142170760e11b81529091906001600160a01b038716906342842e0e90610c5f90849030908a906004016110b2565b600060405180830381600087803b158015610c7957600080fd5b505af1158015610c8d573d6000803e3d6000fd5b5050506001600160a01b038088166000908152602081815260408083208a8452825291829020865181549085166001600160a01b0319918216178255828801516001830180546001600160801b039092166fffffffffffffffffffffffffffffffff1990921691909117905592870151600282015560608701516003820155608087015160048201805460a08a01511515600160a01b0260ff60a01b1993909716951694909417169390931790915560c08501518051869450610d569260058501920190610e02565b5060e08201518051610d72916006840191602090910190610e4d565b505050505050505050565b600160209081526000938452604080852082529284528284209052825290205481565b60405180610100016040528060006001600160a01b0316815260200160006001600160801b03168152602001600081526020016000815260200160006001600160a01b0316815260200160001515815260200160608152602001606081525090565b828054828255906000526020600020908101928215610e3d579160200282015b82811115610e3d578251825591602001919060010190610e22565b50610e49929150610ea2565b5090565b828054828255906000526020600020908101928215610e3d579160200282015b82811115610e3d57825182546001600160a01b0319166001600160a01b03909116178255602090920191600190910190610e6d565b5b80821115610e495760008155600101610ea3565b80356001600160a01b0381168114610ece57600080fd5b919050565b600080600080600060808688031215610eea578081fd5b610ef386610eb7565b9450610f0160208701610eb7565b935060408601359250606086013567ffffffffffffffff80821115610f24578283fd5b818801915088601f830112610f37578283fd5b813581811115610f45578384fd5b896020828501011115610f56578384fd5b9699959850939650602001949392505050565b60008060408385031215610f7b578182fd5b610f8483610eb7565b946020939093013593505050565b600080600060608486031215610fa6578283fd5b610faf84610eb7565b925060208401359150610fc460408501610eb7565b90509250925092565b60008060008060808587031215610fe2578384fd5b610feb85610eb7565b93506020850135925060408501356001600160801b038116811461100d578283fd5b9396929550929360600135925050565b6001600160a01b03169052565b6000815180845260208085019450808401835b838110156110625781516001600160a01b03168752958201959082019060010161103d565b509495945050505050565b6000815180845260208085019450808401835b8381101561106257815187529582019590820190600101611080565b15159052565b6001600160801b03169052565b90565b6001600160a01b039384168152919092166020820152604081019190915260600190565b6001600160a01b0396871681526001600160801b0395909516602086015260408501939093526060840191909152909216608082015290151560a082015260c00190565b6001600160e01b031991909116815260200190565b602080825260169082015275496e76616c6964206475726174696f6e2076616c756560501b604082015260600190565b60208082526027908201527f43757272656e74206d61782062696420697320686967686572207468616e20796040820152661bdd5c88189a5960ca1b606082015260800190565b6020808252601b908201527f50726963652073686f756c64206265206d6f7265207468616e20300000000000604082015260600190565b6020808252600f908201526e125b9d985b1a59081058d8dbdd5b9d608a1b604082015260600190565b6020808252600f908201526e496e76616c6964204164647265737360881b604082015260600190565b60208082526019908201527f446561646c696e6520646964206e6f7420706173732079657400000000000000604082015260600190565b6020808252600a90820152692737ba1039b2b63632b960b11b604082015260600190565b60208082526017908201527f446561646c696e6520616c726561647920706173736564000000000000000000604082015260600190565b60208082526024908201527f626964207072696365206973206c657373207468616e2063757272656e7420706040820152637269636560e01b606082015260800190565b60208082526012908201527161756374696f6e206e6f742061637469766560701b604082015260600190565b602080825282516001600160a01b03168282015282015160009061135860408401826110a2565b506040830151606083015260608301516080830152608083015161137f60a084018261101d565b5060a083015161139260c084018261109c565b5060c08301516101008060e08501526113af61012085018361106d565b915060e0850151601f1985840301828601526113cb838261102a565b9695505050505050565b90815260200190565b6000828210156113f0576113f0611410565b500390565b600060001982141561140957611409611410565b5060010190565b634e487b7160e01b600052601160045260246000fdfea2646970667358221220e9a819bc205ba6cfda7b6c4e7d693d8e2d57a00d067071f934718516c26d372b64736f6c63430008000033",
          "opcodes": "PUSH1 0x80 PUSH1 0x40 MSTORE CALLVALUE DUP1 ISZERO PUSH2 0x10 JUMPI PUSH1 0x0 DUP1 REVERT JUMPDEST POP PUSH2 0x145C DUP1 PUSH2 0x20 PUSH1 0x0 CODECOPY PUSH1 0x0 RETURN INVALID PUSH1 0x80 PUSH1 0x40 MSTORE PUSH1 0x4 CALLDATASIZE LT PUSH2 0x7F JUMPI PUSH1 0x0 CALLDATALOAD PUSH1 0xE0 SHR DUP1 PUSH4 0x7BED7232 GT PUSH2 0x4E JUMPI DUP1 PUSH4 0x7BED7232 EQ PUSH2 0x135 JUMPI DUP1 PUSH4 0x859B97FE EQ PUSH2 0x155 JUMPI DUP1 PUSH4 0xCF680C69 EQ PUSH2 0x175 JUMPI DUP1 PUSH4 0xDD768922 EQ PUSH2 0x195 JUMPI PUSH2 0x86 JUMP JUMPDEST DUP1 PUSH4 0x150B7A02 EQ PUSH2 0x8B JUMPI DUP1 PUSH4 0x59D667A5 EQ PUSH2 0xC1 JUMPI DUP1 PUSH4 0x722565C5 EQ PUSH2 0xD6 JUMPI DUP1 PUSH4 0x7792BA5F EQ PUSH2 0x103 JUMPI PUSH2 0x86 JUMP JUMPDEST CALLDATASIZE PUSH2 0x86 JUMPI STOP JUMPDEST PUSH1 0x0 DUP1 REVERT JUMPDEST CALLVALUE DUP1 ISZERO PUSH2 0x97 JUMPI PUSH1 0x0 DUP1 REVERT JUMPDEST POP PUSH2 0xAB PUSH2 0xA6 CALLDATASIZE PUSH1 0x4 PUSH2 0xED3 JUMP JUMPDEST PUSH2 0x1C2 JUMP JUMPDEST PUSH1 0x40 MLOAD PUSH2 0xB8 SWAP2 SWAP1 PUSH2 0x111A JUMP JUMPDEST PUSH1 0x40 MLOAD DUP1 SWAP2 SUB SWAP1 RETURN JUMPDEST PUSH2 0xD4 PUSH2 0xCF CALLDATASIZE PUSH1 0x4 PUSH2 0xF69 JUMP JUMPDEST PUSH2 0x1EC JUMP JUMPDEST STOP JUMPDEST CALLVALUE DUP1 ISZERO PUSH2 0xE2 JUMPI PUSH1 0x0 DUP1 REVERT JUMPDEST POP PUSH2 0xF6 PUSH2 0xF1 CALLDATASIZE PUSH1 0x4 PUSH2 0xF69 JUMP JUMPDEST PUSH2 0x462 JUMP JUMPDEST PUSH1 0x40 MLOAD PUSH2 0xB8 SWAP2 SWAP1 PUSH2 0x1331 JUMP JUMPDEST CALLVALUE DUP1 ISZERO PUSH2 0x10F JUMPI PUSH1 0x0 DUP1 REVERT JUMPDEST POP PUSH2 0x123 PUSH2 0x11E CALLDATASIZE PUSH1 0x4 PUSH2 0xF69 JUMP JUMPDEST PUSH2 0x5A4 JUMP JUMPDEST PUSH1 0x40 MLOAD PUSH2 0xB8 SWAP7 SWAP6 SWAP5 SWAP4 SWAP3 SWAP2 SWAP1 PUSH2 0x10D6 JUMP JUMPDEST CALLVALUE DUP1 ISZERO PUSH2 0x141 JUMPI PUSH1 0x0 DUP1 REVERT JUMPDEST POP PUSH2 0xD4 PUSH2 0x150 CALLDATASIZE PUSH1 0x4 PUSH2 0xF69 JUMP JUMPDEST PUSH2 0x5FC JUMP JUMPDEST CALLVALUE DUP1 ISZERO PUSH2 0x161 JUMPI PUSH1 0x0 DUP1 REVERT JUMPDEST POP PUSH2 0xD4 PUSH2 0x170 CALLDATASIZE PUSH1 0x4 PUSH2 0xF69 JUMP JUMPDEST PUSH2 0x96C JUMP JUMPDEST CALLVALUE DUP1 ISZERO PUSH2 0x181 JUMPI PUSH1 0x0 DUP1 REVERT JUMPDEST POP PUSH2 0xD4 PUSH2 0x190 CALLDATASIZE PUSH1 0x4 PUSH2 0xFCD JUMP JUMPDEST PUSH2 0xB44 JUMP JUMPDEST CALLVALUE DUP1 ISZERO PUSH2 0x1A1 JUMPI PUSH1 0x0 DUP1 REVERT JUMPDEST POP PUSH2 0x1B5 PUSH2 0x1B0 CALLDATASIZE PUSH1 0x4 PUSH2 0xF92 JUMP JUMPDEST PUSH2 0xD7D JUMP JUMPDEST PUSH1 0x40 MLOAD PUSH2 0xB8 SWAP2 SWAP1 PUSH2 0x13D5 JUMP JUMPDEST PUSH32 0x150B7A023D4804D13E8C85FB27262CB750CF6BA9F9DD3BB30D90F482CEEB4B1F SWAP6 SWAP5 POP POP POP POP POP JUMP JUMPDEST PUSH1 0x1 PUSH1 0x1 PUSH1 0xA0 SHL SUB DUP3 AND PUSH1 0x0 SWAP1 DUP2 MSTORE PUSH1 0x20 DUP2 DUP2 MSTORE PUSH1 0x40 DUP1 DUP4 KECCAK256 DUP5 DUP5 MSTORE SWAP1 SWAP2 MSTORE SWAP1 KECCAK256 PUSH1 0x1 DUP2 ADD SLOAD PUSH1 0x1 PUSH1 0x1 PUSH1 0x80 SHL SUB AND CALLVALUE LT ISZERO PUSH2 0x243 JUMPI PUSH1 0x40 MLOAD PUSH3 0x461BCD PUSH1 0xE5 SHL DUP2 MSTORE PUSH1 0x4 ADD PUSH2 0x23A SWAP1 PUSH2 0x12C1 JUMP JUMPDEST PUSH1 0x40 MLOAD DUP1 SWAP2 SUB SWAP1 REVERT JUMPDEST PUSH1 0x4 DUP2 ADD SLOAD PUSH1 0x1 PUSH1 0xA0 SHL SWAP1 DIV PUSH1 0xFF AND PUSH2 0x26E JUMPI PUSH1 0x40 MLOAD PUSH3 0x461BCD PUSH1 0xE5 SHL DUP2 MSTORE PUSH1 0x4 ADD PUSH2 0x23A SWAP1 PUSH2 0x1305 JUMP JUMPDEST TIMESTAMP DUP2 PUSH1 0x2 ADD SLOAD GT PUSH2 0x291 JUMPI PUSH1 0x40 MLOAD PUSH3 0x461BCD PUSH1 0xE5 SHL DUP2 MSTORE PUSH1 0x4 ADD PUSH2 0x23A SWAP1 PUSH2 0x128A JUMP JUMPDEST PUSH1 0x1 PUSH1 0x1 PUSH1 0xA0 SHL SUB DUP4 AND PUSH1 0x0 SWAP1 DUP2 MSTORE PUSH1 0x1 PUSH1 0x20 SWAP1 DUP2 MSTORE PUSH1 0x40 DUP1 DUP4 KECCAK256 DUP6 DUP5 MSTORE DUP3 MSTORE DUP1 DUP4 KECCAK256 CALLER DUP5 MSTORE SWAP1 SWAP2 MSTORE SWAP1 KECCAK256 SLOAD ISZERO PUSH2 0x34C JUMPI PUSH1 0x1 PUSH1 0x1 PUSH1 0xA0 SHL SUB DUP4 AND PUSH1 0x0 SWAP1 DUP2 MSTORE PUSH1 0x1 PUSH1 0x20 SWAP1 DUP2 MSTORE PUSH1 0x40 DUP1 DUP4 KECCAK256 DUP6 DUP5 MSTORE DUP3 MSTORE DUP1 DUP4 KECCAK256 CALLER DUP1 DUP6 MSTORE SWAP3 MSTORE DUP1 DUP4 KECCAK256 SLOAD SWAP1 MLOAD PUSH2 0x2FA SWAP1 PUSH2 0x10AF JUMP JUMPDEST PUSH1 0x0 PUSH1 0x40 MLOAD DUP1 DUP4 SUB DUP2 DUP6 DUP8 GAS CALL SWAP3 POP POP POP RETURNDATASIZE DUP1 PUSH1 0x0 DUP2 EQ PUSH2 0x337 JUMPI PUSH1 0x40 MLOAD SWAP2 POP PUSH1 0x1F NOT PUSH1 0x3F RETURNDATASIZE ADD AND DUP3 ADD PUSH1 0x40 MSTORE RETURNDATASIZE DUP3 MSTORE RETURNDATASIZE PUSH1 0x0 PUSH1 0x20 DUP5 ADD RETURNDATACOPY PUSH2 0x33C JUMP JUMPDEST PUSH1 0x60 SWAP2 POP JUMPDEST POP POP SWAP1 POP DUP1 PUSH2 0x34A JUMPI PUSH1 0x0 DUP1 REVERT JUMPDEST POP JUMPDEST PUSH1 0x1 PUSH1 0x1 PUSH1 0xA0 SHL SUB DUP4 AND PUSH1 0x0 SWAP1 DUP2 MSTORE PUSH1 0x1 PUSH1 0x20 SWAP1 DUP2 MSTORE PUSH1 0x40 DUP1 DUP4 KECCAK256 DUP6 DUP5 MSTORE DUP3 MSTORE DUP1 DUP4 KECCAK256 CALLER DUP5 MSTORE SWAP1 SWAP2 MSTORE SWAP1 KECCAK256 CALLVALUE SWAP1 SSTORE PUSH1 0x5 DUP2 ADD SLOAD PUSH2 0x3A2 JUMPI CALLVALUE PUSH1 0x3 DUP3 ADD SSTORE PUSH1 0x4 DUP2 ADD DUP1 SLOAD PUSH1 0x1 PUSH1 0x1 PUSH1 0xA0 SHL SUB NOT AND CALLER OR SWAP1 SSTORE PUSH2 0x420 JUMP JUMPDEST PUSH1 0x5 DUP2 ADD SLOAD PUSH1 0x0 SWAP1 PUSH2 0x3B6 SWAP1 PUSH1 0x1 SWAP1 PUSH2 0x13DE JUMP JUMPDEST SWAP1 POP CALLVALUE DUP3 PUSH1 0x5 ADD DUP3 DUP2 SLOAD DUP2 LT PUSH2 0x3DC JUMPI PUSH4 0x4E487B71 PUSH1 0xE0 SHL PUSH1 0x0 MSTORE PUSH1 0x32 PUSH1 0x4 MSTORE PUSH1 0x24 PUSH1 0x0 REVERT JUMPDEST SWAP1 PUSH1 0x0 MSTORE PUSH1 0x20 PUSH1 0x0 KECCAK256 ADD SLOAD LT PUSH2 0x404 JUMPI PUSH1 0x40 MLOAD PUSH3 0x461BCD PUSH1 0xE5 SHL DUP2 MSTORE PUSH1 0x4 ADD PUSH2 0x23A SWAP1 PUSH2 0x115F JUMP JUMPDEST POP CALLVALUE PUSH1 0x3 DUP3 ADD SSTORE PUSH1 0x4 DUP2 ADD DUP1 SLOAD PUSH1 0x1 PUSH1 0x1 PUSH1 0xA0 SHL SUB NOT AND CALLER OR SWAP1 SSTORE JUMPDEST PUSH1 0x6 DUP2 ADD DUP1 SLOAD PUSH1 0x1 DUP2 DUP2 ADD DUP4 SSTORE PUSH1 0x0 SWAP3 DUP4 MSTORE PUSH1 0x20 DUP1 DUP5 KECCAK256 SWAP1 SWAP3 ADD DUP1 SLOAD PUSH1 0x1 PUSH1 0x1 PUSH1 0xA0 SHL SUB NOT AND CALLER OR SWAP1 SSTORE PUSH1 0x5 SWAP1 SWAP4 ADD DUP1 SLOAD SWAP4 DUP5 ADD DUP2 SSTORE DUP3 MSTORE SWAP1 KECCAK256 CALLVALUE SWAP2 ADD SSTORE POP POP JUMP JUMPDEST PUSH2 0x46A PUSH2 0xDA0 JUMP JUMPDEST PUSH1 0x1 PUSH1 0x1 PUSH1 0xA0 SHL SUB DUP4 DUP2 AND PUSH1 0x0 SWAP1 DUP2 MSTORE PUSH1 0x20 DUP2 DUP2 MSTORE PUSH1 0x40 DUP1 DUP4 KECCAK256 DUP7 DUP5 MSTORE DUP3 MSTORE DUP1 DUP4 KECCAK256 DUP2 MLOAD PUSH2 0x100 DUP2 ADD DUP4 MSTORE DUP2 SLOAD DUP7 AND DUP2 MSTORE PUSH1 0x1 DUP3 ADD SLOAD PUSH1 0x1 PUSH1 0x1 PUSH1 0x80 SHL SUB AND DUP2 DUP6 ADD MSTORE PUSH1 0x2 DUP3 ADD SLOAD DUP2 DUP5 ADD MSTORE PUSH1 0x3 DUP3 ADD SLOAD PUSH1 0x60 DUP3 ADD MSTORE PUSH1 0x4 DUP3 ADD SLOAD SWAP6 DUP7 AND PUSH1 0x80 DUP3 ADD MSTORE PUSH1 0x1 PUSH1 0xA0 SHL SWAP1 SWAP6 DIV PUSH1 0xFF AND ISZERO ISZERO PUSH1 0xA0 DUP7 ADD MSTORE PUSH1 0x5 DUP2 ADD DUP1 SLOAD DUP4 MLOAD DUP2 DUP7 MUL DUP2 ADD DUP7 ADD SWAP1 SWAP5 MSTORE DUP1 DUP5 MSTORE SWAP5 SWAP6 SWAP5 SWAP2 SWAP4 PUSH1 0xC0 DUP7 ADD SWAP4 SWAP3 SWAP1 DUP4 ADD DUP3 DUP3 DUP1 ISZERO PUSH2 0x52F JUMPI PUSH1 0x20 MUL DUP3 ADD SWAP2 SWAP1 PUSH1 0x0 MSTORE PUSH1 0x20 PUSH1 0x0 KECCAK256 SWAP1 JUMPDEST DUP2 SLOAD DUP2 MSTORE PUSH1 0x20 ADD SWAP1 PUSH1 0x1 ADD SWAP1 DUP1 DUP4 GT PUSH2 0x51B JUMPI JUMPDEST POP POP POP POP POP DUP2 MSTORE PUSH1 0x20 ADD PUSH1 0x6 DUP3 ADD DUP1 SLOAD DUP1 PUSH1 0x20 MUL PUSH1 0x20 ADD PUSH1 0x40 MLOAD SWAP1 DUP2 ADD PUSH1 0x40 MSTORE DUP1 SWAP3 SWAP2 SWAP1 DUP2 DUP2 MSTORE PUSH1 0x20 ADD DUP3 DUP1 SLOAD DUP1 ISZERO PUSH2 0x591 JUMPI PUSH1 0x20 MUL DUP3 ADD SWAP2 SWAP1 PUSH1 0x0 MSTORE PUSH1 0x20 PUSH1 0x0 KECCAK256 SWAP1 JUMPDEST DUP2 SLOAD PUSH1 0x1 PUSH1 0x1 PUSH1 0xA0 SHL SUB AND DUP2 MSTORE PUSH1 0x1 SWAP1 SWAP2 ADD SWAP1 PUSH1 0x20 ADD DUP1 DUP4 GT PUSH2 0x573 JUMPI JUMPDEST POP POP POP SWAP2 SWAP1 SWAP3 MSTORE POP SWAP2 SWAP7 SWAP6 POP POP POP POP POP POP JUMP JUMPDEST PUSH1 0x0 PUSH1 0x20 DUP2 DUP2 MSTORE SWAP3 DUP2 MSTORE PUSH1 0x40 DUP1 DUP3 KECCAK256 SWAP1 SWAP4 MSTORE SWAP1 DUP2 MSTORE KECCAK256 DUP1 SLOAD PUSH1 0x1 DUP3 ADD SLOAD PUSH1 0x2 DUP4 ADD SLOAD PUSH1 0x3 DUP5 ADD SLOAD PUSH1 0x4 SWAP1 SWAP5 ADD SLOAD PUSH1 0x1 PUSH1 0x1 PUSH1 0xA0 SHL SUB SWAP4 DUP5 AND SWAP5 PUSH1 0x1 PUSH1 0x1 PUSH1 0x80 SHL SUB SWAP1 SWAP4 AND SWAP4 SWAP2 SWAP3 SWAP2 DUP2 AND SWAP1 PUSH1 0x1 PUSH1 0xA0 SHL SWAP1 DIV PUSH1 0xFF AND DUP7 JUMP JUMPDEST PUSH1 0x1 PUSH1 0x1 PUSH1 0xA0 SHL SUB DUP3 AND PUSH1 0x0 SWAP1 DUP2 MSTORE PUSH1 0x20 DUP2 DUP2 MSTORE PUSH1 0x40 DUP1 DUP4 KECCAK256 DUP5 DUP5 MSTORE SWAP1 SWAP2 MSTORE SWAP1 KECCAK256 PUSH1 0x2 DUP2 ADD SLOAD TIMESTAMP LT ISZERO PUSH2 0x641 JUMPI PUSH1 0x40 MLOAD PUSH3 0x461BCD PUSH1 0xE5 SHL DUP2 MSTORE PUSH1 0x4 ADD PUSH2 0x23A SWAP1 PUSH2 0x122F JUMP JUMPDEST DUP1 SLOAD PUSH1 0x1 PUSH1 0x1 PUSH1 0xA0 SHL SUB AND CALLER EQ PUSH2 0x66A JUMPI PUSH1 0x40 MLOAD PUSH3 0x461BCD PUSH1 0xE5 SHL DUP2 MSTORE PUSH1 0x4 ADD PUSH2 0x23A SWAP1 PUSH2 0x1266 JUMP JUMPDEST PUSH1 0x4 DUP2 ADD SLOAD PUSH1 0x1 PUSH1 0xA0 SHL SWAP1 DIV PUSH1 0xFF AND PUSH2 0x695 JUMPI PUSH1 0x40 MLOAD PUSH3 0x461BCD PUSH1 0xE5 SHL DUP2 MSTORE PUSH1 0x4 ADD PUSH2 0x23A SWAP1 PUSH2 0x1305 JUMP JUMPDEST PUSH1 0x4 DUP2 ADD DUP1 SLOAD PUSH1 0xFF PUSH1 0xA0 SHL NOT AND SWAP1 SSTORE PUSH1 0x5 DUP2 ADD SLOAD PUSH2 0x717 JUMPI DUP1 SLOAD PUSH1 0x40 MLOAD PUSH4 0x21421707 PUSH1 0xE1 SHL DUP2 MSTORE PUSH1 0x1 PUSH1 0x1 PUSH1 0xA0 SHL SUB DUP1 DUP7 AND SWAP3 PUSH4 0x42842E0E SWAP3 PUSH2 0x6E0 SWAP3 ADDRESS SWAP3 AND SWAP1 DUP8 SWAP1 PUSH1 0x4 ADD PUSH2 0x10B2 JUMP JUMPDEST PUSH1 0x0 PUSH1 0x40 MLOAD DUP1 DUP4 SUB DUP2 PUSH1 0x0 DUP8 DUP1 EXTCODESIZE ISZERO DUP1 ISZERO PUSH2 0x6FA JUMPI PUSH1 0x0 DUP1 REVERT JUMPDEST POP GAS CALL ISZERO DUP1 ISZERO PUSH2 0x70E JUMPI RETURNDATASIZE PUSH1 0x0 DUP1 RETURNDATACOPY RETURNDATASIZE PUSH1 0x0 REVERT JUMPDEST POP POP POP POP PUSH2 0x967 JUMP JUMPDEST DUP1 SLOAD PUSH1 0x3 DUP3 ADD SLOAD PUSH1 0x40 MLOAD PUSH1 0x0 SWAP3 PUSH1 0x1 PUSH1 0x1 PUSH1 0xA0 SHL SUB AND SWAP2 SWAP1 PUSH2 0x738 SWAP1 PUSH2 0x10AF JUMP JUMPDEST PUSH1 0x0 PUSH1 0x40 MLOAD DUP1 DUP4 SUB DUP2 DUP6 DUP8 GAS CALL SWAP3 POP POP POP RETURNDATASIZE DUP1 PUSH1 0x0 DUP2 EQ PUSH2 0x775 JUMPI PUSH1 0x40 MLOAD SWAP2 POP PUSH1 0x1F NOT PUSH1 0x3F RETURNDATASIZE ADD AND DUP3 ADD PUSH1 0x40 MSTORE RETURNDATASIZE DUP3 MSTORE RETURNDATASIZE PUSH1 0x0 PUSH1 0x20 DUP5 ADD RETURNDATACOPY PUSH2 0x77A JUMP JUMPDEST PUSH1 0x60 SWAP2 POP JUMPDEST POP POP SWAP1 POP DUP1 PUSH2 0x788 JUMPI PUSH1 0x0 DUP1 REVERT JUMPDEST PUSH1 0x0 JUMPDEST PUSH1 0x6 DUP4 ADD SLOAD DUP2 LT ISZERO PUSH2 0x8FB JUMPI PUSH1 0x4 DUP4 ADD SLOAD PUSH1 0x6 DUP5 ADD DUP1 SLOAD PUSH1 0x1 PUSH1 0x1 PUSH1 0xA0 SHL SUB SWAP1 SWAP3 AND SWAP2 DUP4 SWAP1 DUP2 LT PUSH2 0x7CC JUMPI PUSH4 0x4E487B71 PUSH1 0xE0 SHL PUSH1 0x0 MSTORE PUSH1 0x32 PUSH1 0x4 MSTORE PUSH1 0x24 PUSH1 0x0 REVERT JUMPDEST PUSH1 0x0 SWAP2 DUP3 MSTORE PUSH1 0x20 SWAP1 SWAP2 KECCAK256 ADD SLOAD PUSH1 0x1 PUSH1 0x1 PUSH1 0xA0 SHL SUB AND EQ PUSH2 0x8E9 JUMPI DUP3 PUSH1 0x6 ADD DUP2 DUP2 SLOAD DUP2 LT PUSH2 0x809 JUMPI PUSH4 0x4E487B71 PUSH1 0xE0 SHL PUSH1 0x0 MSTORE PUSH1 0x32 PUSH1 0x4 MSTORE PUSH1 0x24 PUSH1 0x0 REVERT JUMPDEST PUSH1 0x0 SWAP2 DUP3 MSTORE PUSH1 0x20 DUP1 DUP4 KECCAK256 SWAP1 SWAP2 ADD SLOAD PUSH1 0x1 PUSH1 0x1 PUSH1 0xA0 SHL SUB DUP9 DUP2 AND DUP5 MSTORE PUSH1 0x1 DUP4 MSTORE PUSH1 0x40 DUP1 DUP6 KECCAK256 DUP10 DUP7 MSTORE SWAP1 SWAP4 MSTORE SWAP2 DUP4 KECCAK256 PUSH1 0x6 DUP8 ADD DUP1 SLOAD SWAP4 SWAP1 SWAP3 AND SWAP4 SWAP1 SWAP3 SWAP1 SWAP2 SWAP1 DUP6 SWAP1 DUP2 LT PUSH2 0x864 JUMPI PUSH4 0x4E487B71 PUSH1 0xE0 SHL PUSH1 0x0 MSTORE PUSH1 0x32 PUSH1 0x4 MSTORE PUSH1 0x24 PUSH1 0x0 REVERT JUMPDEST PUSH1 0x0 SWAP2 DUP3 MSTORE PUSH1 0x20 DUP1 DUP4 KECCAK256 SWAP1 SWAP2 ADD SLOAD PUSH1 0x1 PUSH1 0x1 PUSH1 0xA0 SHL SUB AND DUP4 MSTORE DUP3 ADD SWAP3 SWAP1 SWAP3 MSTORE PUSH1 0x40 SWAP1 DUP2 ADD SWAP1 SWAP2 KECCAK256 SLOAD SWAP1 MLOAD PUSH2 0x897 SWAP1 PUSH2 0x10AF JUMP JUMPDEST PUSH1 0x0 PUSH1 0x40 MLOAD DUP1 DUP4 SUB DUP2 DUP6 DUP8 GAS CALL SWAP3 POP POP POP RETURNDATASIZE DUP1 PUSH1 0x0 DUP2 EQ PUSH2 0x8D4 JUMPI PUSH1 0x40 MLOAD SWAP2 POP PUSH1 0x1F NOT PUSH1 0x3F RETURNDATASIZE ADD AND DUP3 ADD PUSH1 0x40 MSTORE RETURNDATASIZE DUP3 MSTORE RETURNDATASIZE PUSH1 0x0 PUSH1 0x20 DUP5 ADD RETURNDATACOPY PUSH2 0x8D9 JUMP JUMPDEST PUSH1 0x60 SWAP2 POP JUMPDEST POP POP DUP1 SWAP3 POP POP DUP2 PUSH2 0x8E9 JUMPI PUSH1 0x0 DUP1 REVERT JUMPDEST DUP1 PUSH2 0x8F3 DUP2 PUSH2 0x13F5 JUMP JUMPDEST SWAP2 POP POP PUSH2 0x78B JUMP JUMPDEST POP PUSH1 0x4 DUP3 DUP2 ADD SLOAD PUSH1 0x40 MLOAD PUSH4 0x21421707 PUSH1 0xE1 SHL DUP2 MSTORE PUSH1 0x1 PUSH1 0x1 PUSH1 0xA0 SHL SUB DUP8 DUP2 AND SWAP4 PUSH4 0x42842E0E SWAP4 PUSH2 0x933 SWAP4 ADDRESS SWAP4 SWAP1 SWAP2 AND SWAP2 DUP10 SWAP2 ADD PUSH2 0x10B2 JUMP JUMPDEST PUSH1 0x0 PUSH1 0x40 MLOAD DUP1 DUP4 SUB DUP2 PUSH1 0x0 DUP8 DUP1 EXTCODESIZE ISZERO DUP1 ISZERO PUSH2 0x94D JUMPI PUSH1 0x0 DUP1 REVERT JUMPDEST POP GAS CALL ISZERO DUP1 ISZERO PUSH2 0x961 JUMPI RETURNDATASIZE PUSH1 0x0 DUP1 RETURNDATACOPY RETURNDATASIZE PUSH1 0x0 REVERT JUMPDEST POP POP POP POP POP JUMPDEST POP POP POP JUMP JUMPDEST PUSH1 0x1 PUSH1 0x1 PUSH1 0xA0 SHL SUB DUP1 DUP4 AND PUSH1 0x0 SWAP1 DUP2 MSTORE PUSH1 0x20 DUP2 DUP2 MSTORE PUSH1 0x40 DUP1 DUP4 KECCAK256 DUP6 DUP5 MSTORE SWAP1 SWAP2 MSTORE SWAP1 KECCAK256 DUP1 SLOAD SWAP1 SWAP2 AND CALLER EQ PUSH2 0x9B1 JUMPI PUSH1 0x40 MLOAD PUSH3 0x461BCD PUSH1 0xE5 SHL DUP2 MSTORE PUSH1 0x4 ADD PUSH2 0x23A SWAP1 PUSH2 0x1266 JUMP JUMPDEST PUSH1 0x4 DUP2 ADD SLOAD PUSH1 0x1 PUSH1 0xA0 SHL SWAP1 DIV PUSH1 0xFF AND PUSH2 0x9DC JUMPI PUSH1 0x40 MLOAD PUSH3 0x461BCD PUSH1 0xE5 SHL DUP2 MSTORE PUSH1 0x4 ADD PUSH2 0x23A SWAP1 PUSH2 0x1305 JUMP JUMPDEST PUSH1 0x4 DUP2 ADD DUP1 SLOAD PUSH1 0xFF PUSH1 0xA0 SHL NOT AND SWAP1 SSTORE PUSH1 0x0 DUP1 JUMPDEST PUSH1 0x6 DUP4 ADD SLOAD DUP2 LT ISZERO PUSH2 0xB10 JUMPI DUP3 PUSH1 0x6 ADD DUP2 DUP2 SLOAD DUP2 LT PUSH2 0xA1E JUMPI PUSH4 0x4E487B71 PUSH1 0xE0 SHL PUSH1 0x0 MSTORE PUSH1 0x32 PUSH1 0x4 MSTORE PUSH1 0x24 PUSH1 0x0 REVERT JUMPDEST PUSH1 0x0 SWAP2 DUP3 MSTORE PUSH1 0x20 DUP1 DUP4 KECCAK256 SWAP1 SWAP2 ADD SLOAD PUSH1 0x1 PUSH1 0x1 PUSH1 0xA0 SHL SUB DUP9 DUP2 AND DUP5 MSTORE PUSH1 0x1 DUP4 MSTORE PUSH1 0x40 DUP1 DUP6 KECCAK256 DUP10 DUP7 MSTORE SWAP1 SWAP4 MSTORE SWAP2 DUP4 KECCAK256 PUSH1 0x6 DUP8 ADD DUP1 SLOAD SWAP4 SWAP1 SWAP3 AND SWAP4 SWAP1 SWAP3 SWAP1 SWAP2 SWAP1 DUP6 SWAP1 DUP2 LT PUSH2 0xA79 JUMPI PUSH4 0x4E487B71 PUSH1 0xE0 SHL PUSH1 0x0 MSTORE PUSH1 0x32 PUSH1 0x4 MSTORE PUSH1 0x24 PUSH1 0x0 REVERT JUMPDEST PUSH1 0x0 SWAP2 DUP3 MSTORE PUSH1 0x20 DUP1 DUP4 KECCAK256 SWAP1 SWAP2 ADD SLOAD PUSH1 0x1 PUSH1 0x1 PUSH1 0xA0 SHL SUB AND DUP4 MSTORE DUP3 ADD SWAP3 SWAP1 SWAP3 MSTORE PUSH1 0x40 SWAP1 DUP2 ADD SWAP1 SWAP2 KECCAK256 SLOAD SWAP1 MLOAD PUSH2 0xAAC SWAP1 PUSH2 0x10AF JUMP JUMPDEST PUSH1 0x0 PUSH1 0x40 MLOAD DUP1 DUP4 SUB DUP2 DUP6 DUP8 GAS CALL SWAP3 POP POP POP RETURNDATASIZE DUP1 PUSH1 0x0 DUP2 EQ PUSH2 0xAE9 JUMPI PUSH1 0x40 MLOAD SWAP2 POP PUSH1 0x1F NOT PUSH1 0x3F RETURNDATASIZE ADD AND DUP3 ADD PUSH1 0x40 MSTORE RETURNDATASIZE DUP3 MSTORE RETURNDATASIZE PUSH1 0x0 PUSH1 0x20 DUP5 ADD RETURNDATACOPY PUSH2 0xAEE JUMP JUMPDEST PUSH1 0x60 SWAP2 POP JUMPDEST POP POP DUP1 SWAP3 POP POP DUP2 PUSH2 0xAFE JUMPI PUSH1 0x0 DUP1 REVERT JUMPDEST DUP1 PUSH2 0xB08 DUP2 PUSH2 0x13F5 JUMP JUMPDEST SWAP2 POP POP PUSH2 0x9EF JUMP JUMPDEST POP DUP2 SLOAD PUSH1 0x40 MLOAD PUSH4 0x21421707 PUSH1 0xE1 SHL DUP2 MSTORE PUSH1 0x1 PUSH1 0x1 PUSH1 0xA0 SHL SUB DUP1 DUP8 AND SWAP3 PUSH4 0x42842E0E SWAP3 PUSH2 0x933 SWAP3 ADDRESS SWAP3 AND SWAP1 DUP9 SWAP1 PUSH1 0x4 ADD PUSH2 0x10B2 JUMP JUMPDEST CALLER PUSH2 0xB61 JUMPI PUSH1 0x40 MLOAD PUSH3 0x461BCD PUSH1 0xE5 SHL DUP2 MSTORE PUSH1 0x4 ADD PUSH2 0x23A SWAP1 PUSH2 0x1206 JUMP JUMPDEST PUSH1 0x1 PUSH1 0x1 PUSH1 0xA0 SHL SUB DUP5 AND PUSH2 0xB87 JUMPI PUSH1 0x40 MLOAD PUSH3 0x461BCD PUSH1 0xE5 SHL DUP2 MSTORE PUSH1 0x4 ADD PUSH2 0x23A SWAP1 PUSH2 0x11DD JUMP JUMPDEST PUSH1 0x0 DUP3 PUSH1 0x1 PUSH1 0x1 PUSH1 0x80 SHL SUB AND GT PUSH2 0xBB0 JUMPI PUSH1 0x40 MLOAD PUSH3 0x461BCD PUSH1 0xE5 SHL DUP2 MSTORE PUSH1 0x4 ADD PUSH2 0x23A SWAP1 PUSH2 0x11A6 JUMP JUMPDEST PUSH1 0x0 DUP2 GT PUSH2 0xBD0 JUMPI PUSH1 0x40 MLOAD PUSH3 0x461BCD PUSH1 0xE5 SHL DUP2 MSTORE PUSH1 0x4 ADD PUSH2 0x23A SWAP1 PUSH2 0x112F JUMP JUMPDEST PUSH1 0x40 DUP1 MLOAD PUSH2 0x100 DUP2 ADD DUP3 MSTORE CALLER DUP1 DUP3 MSTORE PUSH1 0x1 PUSH1 0x1 PUSH1 0x80 SHL SUB DUP6 AND PUSH1 0x20 DUP1 DUP5 ADD SWAP2 SWAP1 SWAP2 MSTORE DUP3 DUP5 ADD DUP6 SWAP1 MSTORE PUSH1 0x0 PUSH1 0x60 DUP5 ADD DUP2 SWAP1 MSTORE PUSH1 0x80 DUP5 ADD DUP2 SWAP1 MSTORE PUSH1 0x1 PUSH1 0xA0 DUP6 ADD MSTORE DUP5 MLOAD DUP2 DUP2 MSTORE DUP1 DUP4 ADD DUP7 MSTORE PUSH1 0xC0 DUP6 ADD MSTORE DUP5 MLOAD SWAP1 DUP2 MSTORE SWAP1 DUP2 ADD DUP5 MSTORE PUSH1 0xE0 DUP4 ADD MSTORE SWAP2 MLOAD PUSH4 0x21421707 PUSH1 0xE1 SHL DUP2 MSTORE SWAP1 SWAP2 SWAP1 PUSH1 0x1 PUSH1 0x1 PUSH1 0xA0 SHL SUB DUP8 AND SWAP1 PUSH4 0x42842E0E SWAP1 PUSH2 0xC5F SWAP1 DUP5 SWAP1 ADDRESS SWAP1 DUP11 SWAP1 PUSH1 0x4 ADD PUSH2 0x10B2 JUMP JUMPDEST PUSH1 0x0 PUSH1 0x40 MLOAD DUP1 DUP4 SUB DUP2 PUSH1 0x0 DUP8 DUP1 EXTCODESIZE ISZERO DUP1 ISZERO PUSH2 0xC79 JUMPI PUSH1 0x0 DUP1 REVERT JUMPDEST POP GAS CALL ISZERO DUP1 ISZERO PUSH2 0xC8D JUMPI RETURNDATASIZE PUSH1 0x0 DUP1 RETURNDATACOPY RETURNDATASIZE PUSH1 0x0 REVERT JUMPDEST POP POP POP PUSH1 0x1 PUSH1 0x1 PUSH1 0xA0 SHL SUB DUP1 DUP9 AND PUSH1 0x0 SWAP1 DUP2 MSTORE PUSH1 0x20 DUP2 DUP2 MSTORE PUSH1 0x40 DUP1 DUP4 KECCAK256 DUP11 DUP5 MSTORE DUP3 MSTORE SWAP2 DUP3 SWAP1 KECCAK256 DUP7 MLOAD DUP2 SLOAD SWAP1 DUP6 AND PUSH1 0x1 PUSH1 0x1 PUSH1 0xA0 SHL SUB NOT SWAP2 DUP3 AND OR DUP3 SSTORE DUP3 DUP9 ADD MLOAD PUSH1 0x1 DUP4 ADD DUP1 SLOAD PUSH1 0x1 PUSH1 0x1 PUSH1 0x80 SHL SUB SWAP1 SWAP3 AND PUSH16 0xFFFFFFFFFFFFFFFFFFFFFFFFFFFFFFFF NOT SWAP1 SWAP3 AND SWAP2 SWAP1 SWAP2 OR SWAP1 SSTORE SWAP3 DUP8 ADD MLOAD PUSH1 0x2 DUP3 ADD SSTORE PUSH1 0x60 DUP8 ADD MLOAD PUSH1 0x3 DUP3 ADD SSTORE PUSH1 0x80 DUP8 ADD MLOAD PUSH1 0x4 DUP3 ADD DUP1 SLOAD PUSH1 0xA0 DUP11 ADD MLOAD ISZERO ISZERO PUSH1 0x1 PUSH1 0xA0 SHL MUL PUSH1 0xFF PUSH1 0xA0 SHL NOT SWAP4 SWAP1 SWAP8 AND SWAP6 AND SWAP5 SWAP1 SWAP5 OR AND SWAP4 SWAP1 SWAP4 OR SWAP1 SWAP2 SSTORE PUSH1 0xC0 DUP6 ADD MLOAD DUP1 MLOAD DUP7 SWAP5 POP PUSH2 0xD56 SWAP3 PUSH1 0x5 DUP6 ADD SWAP3 ADD SWAP1 PUSH2 0xE02 JUMP JUMPDEST POP PUSH1 0xE0 DUP3 ADD MLOAD DUP1 MLOAD PUSH2 0xD72 SWAP2 PUSH1 0x6 DUP5 ADD SWAP2 PUSH1 0x20 SWAP1 SWAP2 ADD SWAP1 PUSH2 0xE4D JUMP JUMPDEST POP POP POP POP POP POP POP POP POP JUMP JUMPDEST PUSH1 0x1 PUSH1 0x20 SWAP1 DUP2 MSTORE PUSH1 0x0 SWAP4 DUP5 MSTORE PUSH1 0x40 DUP1 DUP6 KECCAK256 DUP3 MSTORE SWAP3 DUP5 MSTORE DUP3 DUP5 KECCAK256 SWAP1 MSTORE DUP3 MSTORE SWAP1 KECCAK256 SLOAD DUP2 JUMP JUMPDEST PUSH1 0x40 MLOAD DUP1 PUSH2 0x100 ADD PUSH1 0x40 MSTORE DUP1 PUSH1 0x0 PUSH1 0x1 PUSH1 0x1 PUSH1 0xA0 SHL SUB AND DUP2 MSTORE PUSH1 0x20 ADD PUSH1 0x0 PUSH1 0x1 PUSH1 0x1 PUSH1 0x80 SHL SUB AND DUP2 MSTORE PUSH1 0x20 ADD PUSH1 0x0 DUP2 MSTORE PUSH1 0x20 ADD PUSH1 0x0 DUP2 MSTORE PUSH1 0x20 ADD PUSH1 0x0 PUSH1 0x1 PUSH1 0x1 PUSH1 0xA0 SHL SUB AND DUP2 MSTORE PUSH1 0x20 ADD PUSH1 0x0 ISZERO ISZERO DUP2 MSTORE PUSH1 0x20 ADD PUSH1 0x60 DUP2 MSTORE PUSH1 0x20 ADD PUSH1 0x60 DUP2 MSTORE POP SWAP1 JUMP JUMPDEST DUP3 DUP1 SLOAD DUP3 DUP3 SSTORE SWAP1 PUSH1 0x0 MSTORE PUSH1 0x20 PUSH1 0x0 KECCAK256 SWAP1 DUP2 ADD SWAP3 DUP3 ISZERO PUSH2 0xE3D JUMPI SWAP2 PUSH1 0x20 MUL DUP3 ADD JUMPDEST DUP3 DUP2 GT ISZERO PUSH2 0xE3D JUMPI DUP3 MLOAD DUP3 SSTORE SWAP2 PUSH1 0x20 ADD SWAP2 SWAP1 PUSH1 0x1 ADD SWAP1 PUSH2 0xE22 JUMP JUMPDEST POP PUSH2 0xE49 SWAP3 SWAP2 POP PUSH2 0xEA2 JUMP JUMPDEST POP SWAP1 JUMP JUMPDEST DUP3 DUP1 SLOAD DUP3 DUP3 SSTORE SWAP1 PUSH1 0x0 MSTORE PUSH1 0x20 PUSH1 0x0 KECCAK256 SWAP1 DUP2 ADD SWAP3 DUP3 ISZERO PUSH2 0xE3D JUMPI SWAP2 PUSH1 0x20 MUL DUP3 ADD JUMPDEST DUP3 DUP2 GT ISZERO PUSH2 0xE3D JUMPI DUP3 MLOAD DUP3 SLOAD PUSH1 0x1 PUSH1 0x1 PUSH1 0xA0 SHL SUB NOT AND PUSH1 0x1 PUSH1 0x1 PUSH1 0xA0 SHL SUB SWAP1 SWAP2 AND OR DUP3 SSTORE PUSH1 0x20 SWAP1 SWAP3 ADD SWAP2 PUSH1 0x1 SWAP1 SWAP2 ADD SWAP1 PUSH2 0xE6D JUMP JUMPDEST JUMPDEST DUP1 DUP3 GT ISZERO PUSH2 0xE49 JUMPI PUSH1 0x0 DUP2 SSTORE PUSH1 0x1 ADD PUSH2 0xEA3 JUMP JUMPDEST DUP1 CALLDATALOAD PUSH1 0x1 PUSH1 0x1 PUSH1 0xA0 SHL SUB DUP2 AND DUP2 EQ PUSH2 0xECE JUMPI PUSH1 0x0 DUP1 REVERT JUMPDEST SWAP2 SWAP1 POP JUMP JUMPDEST PUSH1 0x0 DUP1 PUSH1 0x0 DUP1 PUSH1 0x0 PUSH1 0x80 DUP7 DUP9 SUB SLT ISZERO PUSH2 0xEEA JUMPI DUP1 DUP2 REVERT JUMPDEST PUSH2 0xEF3 DUP7 PUSH2 0xEB7 JUMP JUMPDEST SWAP5 POP PUSH2 0xF01 PUSH1 0x20 DUP8 ADD PUSH2 0xEB7 JUMP JUMPDEST SWAP4 POP PUSH1 0x40 DUP7 ADD CALLDATALOAD SWAP3 POP PUSH1 0x60 DUP7 ADD CALLDATALOAD PUSH8 0xFFFFFFFFFFFFFFFF DUP1 DUP3 GT ISZERO PUSH2 0xF24 JUMPI DUP3 DUP4 REVERT JUMPDEST DUP2 DUP9 ADD SWAP2 POP DUP9 PUSH1 0x1F DUP4 ADD SLT PUSH2 0xF37 JUMPI DUP3 DUP4 REVERT JUMPDEST DUP2 CALLDATALOAD DUP2 DUP2 GT ISZERO PUSH2 0xF45 JUMPI DUP4 DUP5 REVERT JUMPDEST DUP10 PUSH1 0x20 DUP3 DUP6 ADD ADD GT ISZERO PUSH2 0xF56 JUMPI DUP4 DUP5 REVERT JUMPDEST SWAP7 SWAP10 SWAP6 SWAP9 POP SWAP4 SWAP7 POP PUSH1 0x20 ADD SWAP5 SWAP4 SWAP3 POP POP POP JUMP JUMPDEST PUSH1 0x0 DUP1 PUSH1 0x40 DUP4 DUP6 SUB SLT ISZERO PUSH2 0xF7B JUMPI DUP2 DUP3 REVERT JUMPDEST PUSH2 0xF84 DUP4 PUSH2 0xEB7 JUMP JUMPDEST SWAP5 PUSH1 0x20 SWAP4 SWAP1 SWAP4 ADD CALLDATALOAD SWAP4 POP POP POP JUMP JUMPDEST PUSH1 0x0 DUP1 PUSH1 0x0 PUSH1 0x60 DUP5 DUP7 SUB SLT ISZERO PUSH2 0xFA6 JUMPI DUP3 DUP4 REVERT JUMPDEST PUSH2 0xFAF DUP5 PUSH2 0xEB7 JUMP JUMPDEST SWAP3 POP PUSH1 0x20 DUP5 ADD CALLDATALOAD SWAP2 POP PUSH2 0xFC4 PUSH1 0x40 DUP6 ADD PUSH2 0xEB7 JUMP JUMPDEST SWAP1 POP SWAP3 POP SWAP3 POP SWAP3 JUMP JUMPDEST PUSH1 0x0 DUP1 PUSH1 0x0 DUP1 PUSH1 0x80 DUP6 DUP8 SUB SLT ISZERO PUSH2 0xFE2 JUMPI DUP4 DUP5 REVERT JUMPDEST PUSH2 0xFEB DUP6 PUSH2 0xEB7 JUMP JUMPDEST SWAP4 POP PUSH1 0x20 DUP6 ADD CALLDATALOAD SWAP3 POP PUSH1 0x40 DUP6 ADD CALLDATALOAD PUSH1 0x1 PUSH1 0x1 PUSH1 0x80 SHL SUB DUP2 AND DUP2 EQ PUSH2 0x100D JUMPI DUP3 DUP4 REVERT JUMPDEST SWAP4 SWAP7 SWAP3 SWAP6 POP SWAP3 SWAP4 PUSH1 0x60 ADD CALLDATALOAD SWAP3 POP POP JUMP JUMPDEST PUSH1 0x1 PUSH1 0x1 PUSH1 0xA0 SHL SUB AND SWAP1 MSTORE JUMP JUMPDEST PUSH1 0x0 DUP2 MLOAD DUP1 DUP5 MSTORE PUSH1 0x20 DUP1 DUP6 ADD SWAP5 POP DUP1 DUP5 ADD DUP4 JUMPDEST DUP4 DUP2 LT ISZERO PUSH2 0x1062 JUMPI DUP2 MLOAD PUSH1 0x1 PUSH1 0x1 PUSH1 0xA0 SHL SUB AND DUP8 MSTORE SWAP6 DUP3 ADD SWAP6 SWAP1 DUP3 ADD SWAP1 PUSH1 0x1 ADD PUSH2 0x103D JUMP JUMPDEST POP SWAP5 SWAP6 SWAP5 POP POP POP POP POP JUMP JUMPDEST PUSH1 0x0 DUP2 MLOAD DUP1 DUP5 MSTORE PUSH1 0x20 DUP1 DUP6 ADD SWAP5 POP DUP1 DUP5 ADD DUP4 JUMPDEST DUP4 DUP2 LT ISZERO PUSH2 0x1062 JUMPI DUP2 MLOAD DUP8 MSTORE SWAP6 DUP3 ADD SWAP6 SWAP1 DUP3 ADD SWAP1 PUSH1 0x1 ADD PUSH2 0x1080 JUMP JUMPDEST ISZERO ISZERO SWAP1 MSTORE JUMP JUMPDEST PUSH1 0x1 PUSH1 0x1 PUSH1 0x80 SHL SUB AND SWAP1 MSTORE JUMP JUMPDEST SWAP1 JUMP JUMPDEST PUSH1 0x1 PUSH1 0x1 PUSH1 0xA0 SHL SUB SWAP4 DUP5 AND DUP2 MSTORE SWAP2 SWAP1 SWAP3 AND PUSH1 0x20 DUP3 ADD MSTORE PUSH1 0x40 DUP2 ADD SWAP2 SWAP1 SWAP2 MSTORE PUSH1 0x60 ADD SWAP1 JUMP JUMPDEST PUSH1 0x1 PUSH1 0x1 PUSH1 0xA0 SHL SUB SWAP7 DUP8 AND DUP2 MSTORE PUSH1 0x1 PUSH1 0x1 PUSH1 0x80 SHL SUB SWAP6 SWAP1 SWAP6 AND PUSH1 0x20 DUP7 ADD MSTORE PUSH1 0x40 DUP6 ADD SWAP4 SWAP1 SWAP4 MSTORE PUSH1 0x60 DUP5 ADD SWAP2 SWAP1 SWAP2 MSTORE SWAP1 SWAP3 AND PUSH1 0x80 DUP3 ADD MSTORE SWAP1 ISZERO ISZERO PUSH1 0xA0 DUP3 ADD MSTORE PUSH1 0xC0 ADD SWAP1 JUMP JUMPDEST PUSH1 0x1 PUSH1 0x1 PUSH1 0xE0 SHL SUB NOT SWAP2 SWAP1 SWAP2 AND DUP2 MSTORE PUSH1 0x20 ADD SWAP1 JUMP JUMPDEST PUSH1 0x20 DUP1 DUP3 MSTORE PUSH1 0x16 SWAP1 DUP3 ADD MSTORE PUSH22 0x496E76616C6964206475726174696F6E2076616C7565 PUSH1 0x50 SHL PUSH1 0x40 DUP3 ADD MSTORE PUSH1 0x60 ADD SWAP1 JUMP JUMPDEST PUSH1 0x20 DUP1 DUP3 MSTORE PUSH1 0x27 SWAP1 DUP3 ADD MSTORE PUSH32 0x43757272656E74206D61782062696420697320686967686572207468616E2079 PUSH1 0x40 DUP3 ADD MSTORE PUSH7 0x1BDD5C88189A59 PUSH1 0xCA SHL PUSH1 0x60 DUP3 ADD MSTORE PUSH1 0x80 ADD SWAP1 JUMP JUMPDEST PUSH1 0x20 DUP1 DUP3 MSTORE PUSH1 0x1B SWAP1 DUP3 ADD MSTORE PUSH32 0x50726963652073686F756C64206265206D6F7265207468616E20300000000000 PUSH1 0x40 DUP3 ADD MSTORE PUSH1 0x60 ADD SWAP1 JUMP JUMPDEST PUSH1 0x20 DUP1 DUP3 MSTORE PUSH1 0xF SWAP1 DUP3 ADD MSTORE PUSH15 0x125B9D985B1A59081058D8DBDD5B9D PUSH1 0x8A SHL PUSH1 0x40 DUP3 ADD MSTORE PUSH1 0x60 ADD SWAP1 JUMP JUMPDEST PUSH1 0x20 DUP1 DUP3 MSTORE PUSH1 0xF SWAP1 DUP3 ADD MSTORE PUSH15 0x496E76616C69642041646472657373 PUSH1 0x88 SHL PUSH1 0x40 DUP3 ADD MSTORE PUSH1 0x60 ADD SWAP1 JUMP JUMPDEST PUSH1 0x20 DUP1 DUP3 MSTORE PUSH1 0x19 SWAP1 DUP3 ADD MSTORE PUSH32 0x446561646C696E6520646964206E6F7420706173732079657400000000000000 PUSH1 0x40 DUP3 ADD MSTORE PUSH1 0x60 ADD SWAP1 JUMP JUMPDEST PUSH1 0x20 DUP1 DUP3 MSTORE PUSH1 0xA SWAP1 DUP3 ADD MSTORE PUSH10 0x2737BA1039B2B63632B9 PUSH1 0xB1 SHL PUSH1 0x40 DUP3 ADD MSTORE PUSH1 0x60 ADD SWAP1 JUMP JUMPDEST PUSH1 0x20 DUP1 DUP3 MSTORE PUSH1 0x17 SWAP1 DUP3 ADD MSTORE PUSH32 0x446561646C696E6520616C726561647920706173736564000000000000000000 PUSH1 0x40 DUP3 ADD MSTORE PUSH1 0x60 ADD SWAP1 JUMP JUMPDEST PUSH1 0x20 DUP1 DUP3 MSTORE PUSH1 0x24 SWAP1 DUP3 ADD MSTORE PUSH32 0x626964207072696365206973206C657373207468616E2063757272656E742070 PUSH1 0x40 DUP3 ADD MSTORE PUSH4 0x72696365 PUSH1 0xE0 SHL PUSH1 0x60 DUP3 ADD MSTORE PUSH1 0x80 ADD SWAP1 JUMP JUMPDEST PUSH1 0x20 DUP1 DUP3 MSTORE PUSH1 0x12 SWAP1 DUP3 ADD MSTORE PUSH18 0x61756374696F6E206E6F7420616374697665 PUSH1 0x70 SHL PUSH1 0x40 DUP3 ADD MSTORE PUSH1 0x60 ADD SWAP1 JUMP JUMPDEST PUSH1 0x20 DUP1 DUP3 MSTORE DUP3 MLOAD PUSH1 0x1 PUSH1 0x1 PUSH1 0xA0 SHL SUB AND DUP3 DUP3 ADD MSTORE DUP3 ADD MLOAD PUSH1 0x0 SWAP1 PUSH2 0x1358 PUSH1 0x40 DUP5 ADD DUP3 PUSH2 0x10A2 JUMP JUMPDEST POP PUSH1 0x40 DUP4 ADD MLOAD PUSH1 0x60 DUP4 ADD MSTORE PUSH1 0x60 DUP4 ADD MLOAD PUSH1 0x80 DUP4 ADD MSTORE PUSH1 0x80 DUP4 ADD MLOAD PUSH2 0x137F PUSH1 0xA0 DUP5 ADD DUP3 PUSH2 0x101D JUMP JUMPDEST POP PUSH1 0xA0 DUP4 ADD MLOAD PUSH2 0x1392 PUSH1 0xC0 DUP5 ADD DUP3 PUSH2 0x109C JUMP JUMPDEST POP PUSH1 0xC0 DUP4 ADD MLOAD PUSH2 0x100 DUP1 PUSH1 0xE0 DUP6 ADD MSTORE PUSH2 0x13AF PUSH2 0x120 DUP6 ADD DUP4 PUSH2 0x106D JUMP JUMPDEST SWAP2 POP PUSH1 0xE0 DUP6 ADD MLOAD PUSH1 0x1F NOT DUP6 DUP5 SUB ADD DUP3 DUP7 ADD MSTORE PUSH2 0x13CB DUP4 DUP3 PUSH2 0x102A JUMP JUMPDEST SWAP7 SWAP6 POP POP POP POP POP POP JUMP JUMPDEST SWAP1 DUP2 MSTORE PUSH1 0x20 ADD SWAP1 JUMP JUMPDEST PUSH1 0x0 DUP3 DUP3 LT ISZERO PUSH2 0x13F0 JUMPI PUSH2 0x13F0 PUSH2 0x1410 JUMP JUMPDEST POP SUB SWAP1 JUMP JUMPDEST PUSH1 0x0 PUSH1 0x0 NOT DUP3 EQ ISZERO PUSH2 0x1409 JUMPI PUSH2 0x1409 PUSH2 0x1410 JUMP JUMPDEST POP PUSH1 0x1 ADD SWAP1 JUMP JUMPDEST PUSH4 0x4E487B71 PUSH1 0xE0 SHL PUSH1 0x0 MSTORE PUSH1 0x11 PUSH1 0x4 MSTORE PUSH1 0x24 PUSH1 0x0 REVERT INVALID LOG2 PUSH5 0x6970667358 0x22 SLT KECCAK256 0xE9 0xA8 NOT 0xBC KECCAK256 JUMPDEST 0xA6 0xCF 0xDA PUSH28 0x6C4E7D693D8E2D57A00D067071F934718516C26D372B64736F6C6343 STOP ADDMOD STOP STOP CALLER "
        },
        "methodIdentifiers": {
          "bid(address,uint256)": "59d667a5",
          "bids(address,uint256,address)": "dd768922",
          "cancelAuction(address,uint256)": "859b97fe",
          "createTokenAuction(address,uint256,uint128,uint256)": "cf680c69",
          "executeSale(address,uint256)": "7bed7232",
          "getTokenAuctionDetails(address,uint256)": "722565c5",
          "onERC721Received(address,address,uint256,bytes)": "150b7a02",
          "tokenToAuction(address,uint256)": "7792ba5f"
        }
      }
    }
  }
}