{"address":"0xe7f1725E7734CE288F8367e1Bb143E90bb3F0512","bytecode":"0x608060405234801561001057600080fd5b5061145c806100206000396000f3fe60806040526004361061007f5760003560e01c80637bed72321161004e5780637bed723214610135578063859b97fe14610155578063cf680c6914610175578063dd7689221461019557610086565b8063150b7a021461008b57806359d667a5146100c1578063722565c5146100d65780637792ba5f1461010357610086565b3661008657005b600080fd5b34801561009757600080fd5b506100ab6100a6366004610ed3565b6101c2565b6040516100b8919061111a565b60405180910390f35b6100d46100cf366004610f69565b6101ec565b005b3480156100e257600080fd5b506100f66100f1366004610f69565b610462565b6040516100b89190611331565b34801561010f57600080fd5b5061012361011e366004610f69565b6105a4565b6040516100b8969594939291906110d6565b34801561014157600080fd5b506100d4610150366004610f69565b6105fc565b34801561016157600080fd5b506100d4610170366004610f69565b61096c565b34801561018157600080fd5b506100d4610190366004610fcd565b610b44565b3480156101a157600080fd5b506101b56101b0366004610f92565b610d7d565b6040516100b891906113d5565b7f150b7a023d4804d13e8c85fb27262cb750cf6ba9f9dd3bb30d90f482ceeb4b1f95945050505050565b6001600160a01b038216600090815260208181526040808320848452909152902060018101546001600160801b03163410156102435760405162461bcd60e51b815260040161023a906112c1565b60405180910390fd5b6004810154600160a01b900460ff1661026e5760405162461bcd60e51b815260040161023a90611305565b428160020154116102915760405162461bcd60e51b815260040161023a9061128a565b6001600160a01b038316600090815260016020908152604080832085845282528083203384529091529020541561034c576001600160a01b038316600090815260016020908152604080832085845282528083203380855292528083205490516102fa906110af565b60006040518083038185875af1925050503d8060008114610337576040519150601f19603f3d011682016040523d82523d6000602084013e61033c565b606091505b505090508061034a57600080fd5b505b6001600160a01b03831660009081526001602090815260408083208584528252808320338452909152902034905560058101546103a2573460038201556004810180546001600160a01b03191633179055610420565b60058101546000906103b6906001906113de565b9050348260050182815481106103dc57634e487b7160e01b600052603260045260246000fd5b9060005260206000200154106104045760405162461bcd60e51b815260040161023a9061115f565b503460038201556004810180546001600160a01b031916331790555b600681018054600181810183556000928352602080842090920180546001600160a01b0319163317905560059093018054938401815582529020349101555050565b61046a610da0565b6001600160a01b03838116600090815260208181526040808320868452825280832081516101008101835281548616815260018201546001600160801b0316818501526002820154818401526003820154606082015260048201549586166080820152600160a01b90950460ff16151560a0860152600581018054835181860281018601909452808452949594919360c0860193929083018282801561052f57602002820191906000526020600020905b81548152602001906001019080831161051b575b505050505081526020016006820180548060200260200160405190810160405280929190818152602001828054801561059157602002820191906000526020600020905b81546001600160a01b03168152600190910190602001808311610573575b5050509190925250919695505050505050565b6000602081815292815260408082209093529081522080546001820154600283015460038401546004909401546001600160a01b03938416946001600160801b0390931693919291811690600160a01b900460ff1686565b6001600160a01b038216600090815260208181526040808320848452909152902060028101544210156106415760405162461bcd60e51b815260040161023a9061122f565b80546001600160a01b0316331461066a5760405162461bcd60e51b815260040161023a90611266565b6004810154600160a01b900460ff166106955760405162461bcd60e51b815260040161023a90611305565b60048101805460ff60a01b191690556005810154610717578054604051632142170760e11b81526001600160a01b03808616926342842e0e926106e0923092169087906004016110b2565b600060405180830381600087803b1580156106fa57600080fd5b505af115801561070e573d6000803e3d6000fd5b50505050610967565b805460038201546040516000926001600160a01b03169190610738906110af565b60006040518083038185875af1925050503d8060008114610775576040519150601f19603f3d011682016040523d82523d6000602084013e61077a565b606091505b505090508061078857600080fd5b60005b60068301548110156108fb5760048301546006840180546001600160a01b0390921691839081106107cc57634e487b7160e01b600052603260045260246000fd5b6000918252602090912001546001600160a01b0316146108e95782600601818154811061080957634e487b7160e01b600052603260045260246000fd5b60009182526020808320909101546001600160a01b038881168452600183526040808520898652909352918320600687018054939092169390929091908590811061086457634e487b7160e01b600052603260045260246000fd5b60009182526020808320909101546001600160a01b031683528201929092526040908101909120549051610897906110af565b60006040518083038185875af1925050503d80600081146108d4576040519150601f19603f3d011682016040523d82523d6000602084013e6108d9565b606091505b505080925050816108e957600080fd5b806108f3816113f5565b91505061078b565b50600482810154604051632142170760e11b81526001600160a01b03878116936342842e0e93610933933093909116918991016110b2565b600060405180830381600087803b15801561094d57600080fd5b505af1158015610961573d6000803e3d6000fd5b50505050505b505050565b6001600160a01b038083166000908152602081815260408083208584529091529020805490911633146109b15760405162461bcd60e51b815260040161023a90611266565b6004810154600160a01b900460ff166109dc5760405162461bcd60e51b815260040161023a90611305565b60048101805460ff60a01b191690556000805b6006830154811015610b1057826006018181548110610a1e57634e487b7160e01b600052603260045260246000fd5b60009182526020808320909101546001600160a01b0388811684526001835260408085208986529093529183206006870180549390921693909290919085908110610a7957634e487b7160e01b600052603260045260246000fd5b60009182526020808320909101546001600160a01b031683528201929092526040908101909120549051610aac906110af565b60006040518083038185875af1925050503d8060008114610ae9576040519150601f19603f3d011682016040523d82523d6000602084013e610aee565b606091505b50508092505081610afe57600080fd5b80610b08816113f5565b9150506109ef565b508154604051632142170760e11b81526001600160a01b03808716926342842e0e92610933923092169088906004016110b2565b33610b615760405162461bcd60e51b815260040161023a90611206565b6001600160a01b038416610b875760405162461bcd60e51b815260040161023a906111dd565b6000826001600160801b031611610bb05760405162461bcd60e51b815260040161023a906111a6565b60008111610bd05760405162461bcd60e51b815260040161023a9061112f565b6040805161010081018252338082526001600160801b03851660208084019190915282840185905260006060840181905260808401819052600160a08501528451818152808301865260c08501528451908152908101845260e08301529151632142170760e11b81529091906001600160a01b038716906342842e0e90610c5f90849030908a906004016110b2565b600060405180830381600087803b158015610c7957600080fd5b505af1158015610c8d573d6000803e3d6000fd5b5050506001600160a01b038088166000908152602081815260408083208a8452825291829020865181549085166001600160a01b0319918216178255828801516001830180546001600160801b039092166fffffffffffffffffffffffffffffffff1990921691909117905592870151600282015560608701516003820155608087015160048201805460a08a01511515600160a01b0260ff60a01b1993909716951694909417169390931790915560c08501518051869450610d569260058501920190610e02565b5060e08201518051610d72916006840191602090910190610e4d565b505050505050505050565b600160209081526000938452604080852082529284528284209052825290205481565b60405180610100016040528060006001600160a01b0316815260200160006001600160801b03168152602001600081526020016000815260200160006001600160a01b0316815260200160001515815260200160608152602001606081525090565b828054828255906000526020600020908101928215610e3d579160200282015b82811115610e3d578251825591602001919060010190610e22565b50610e49929150610ea2565b5090565b828054828255906000526020600020908101928215610e3d579160200282015b82811115610e3d57825182546001600160a01b0319166001600160a01b03909116178255602090920191600190910190610e6d565b5b80821115610e495760008155600101610ea3565b80356001600160a01b0381168114610ece57600080fd5b919050565b600080600080600060808688031215610eea578081fd5b610ef386610eb7565b9450610f0160208701610eb7565b935060408601359250606086013567ffffffffffffffff80821115610f24578283fd5b818801915088601f830112610f37578283fd5b813581811115610f45578384fd5b896020828501011115610f56578384fd5b9699959850939650602001949392505050565b60008060408385031215610f7b578182fd5b610f8483610eb7565b946020939093013593505050565b600080600060608486031215610fa6578283fd5b610faf84610eb7565b925060208401359150610fc460408501610eb7565b90509250925092565b60008060008060808587031215610fe2578384fd5b610feb85610eb7565b93506020850135925060408501356001600160801b038116811461100d578283fd5b9396929550929360600135925050565b6001600160a01b03169052565b6000815180845260208085019450808401835b838110156110625781516001600160a01b03168752958201959082019060010161103d565b509495945050505050565b6000815180845260208085019450808401835b8381101561106257815187529582019590820190600101611080565b15159052565b6001600160801b03169052565b90565b6001600160a01b039384168152919092166020820152604081019190915260600190565b6001600160a01b0396871681526001600160801b0395909516602086015260408501939093526060840191909152909216608082015290151560a082015260c00190565b6001600160e01b031991909116815260200190565b602080825260169082015275496e76616c6964206475726174696f6e2076616c756560501b604082015260600190565b60208082526027908201527f43757272656e74206d61782062696420697320686967686572207468616e20796040820152661bdd5c88189a5960ca1b606082015260800190565b6020808252601b908201527f50726963652073686f756c64206265206d6f7265207468616e20300000000000604082015260600190565b6020808252600f908201526e125b9d985b1a59081058d8dbdd5b9d608a1b604082015260600190565b6020808252600f908201526e496e76616c6964204164647265737360881b604082015260600190565b60208082526019908201527f446561646c696e6520646964206e6f7420706173732079657400000000000000604082015260600190565b6020808252600a90820152692737ba1039b2b63632b960b11b604082015260600190565b60208082526017908201527f446561646c696e6520616c726561647920706173736564000000000000000000604082015260600190565b60208082526024908201527f626964207072696365206973206c657373207468616e2063757272656e7420706040820152637269636560e01b606082015260800190565b60208082526012908201527161756374696f6e206e6f742061637469766560701b604082015260600190565b602080825282516001600160a01b03168282015282015160009061135860408401826110a2565b506040830151606083015260608301516080830152608083015161137f60a084018261101d565b5060a083015161139260c084018261109c565b5060c08301516101008060e08501526113af61012085018361106d565b915060e0850151601f1985840301828601526113cb838261102a565b9695505050505050565b90815260200190565b6000828210156113f0576113f0611410565b500390565b600060001982141561140957611409611410565b5060010190565b634e487b7160e01b600052601160045260246000fdfea2646970667358221220e9a819bc205ba6cfda7b6c4e7d693d8e2d57a00d067071f934718516c26d372b64736f6c63430008000033","abi":[{"inputs":[{"internalType":"address","name":"_nft","type":"address"},{"internalType":"uint256","name":"_tokenId","type":"uint256"}],"name":"bid","outputs":[],"stateMutability":"payable","type":"function"},{"inputs":[{"internalType":"address","name":"","type":"address"},{"internalType":"uint256","name":"","type":"uint256"},{"internalType":"address","name":"","type":"address"}],"name":"bids","outputs":[{"internalType":"uint256","name":"","type":"uint256"}],"stateMutability":"view","type":"function"},{"inputs":[{"internalType":"address","name":"_nft","type":"address"},{"internalType":"uint256","name":"_tokenId","type":"uint256"}],"name":"cancelAuction","outputs":[],"stateMutability":"nonpayable","type":"function"},{"inputs":[{"internalType":"address","name":"_nft","type":"address"},{"internalType":"uint256","name":"_tokenId","type":"uint256"},{"internalType":"uint128","name":"_price","type":"uint128"},{"internalType":"uint256","name":"_duration","type":"uint256"}],"name":"createTokenAuction","outputs":[],"stateMutability":"nonpayable","type":"function"},{"inputs":[{"internalType":"address","name":"_nft","type":"address"},{"internalType":"uint256","name":"_tokenId","type":"uint256"}],"name":"executeSale","outputs":[],"stateMutability":"nonpayable","type":"function"},{"inputs":[{"internalType":"address","name":"_nft","type":"address"},{"internalType":"uint256","name":"_tokenId","type":"uint256"}],"name":"getTokenAuctionDetails","outputs":[{"components":[{"internalType":"address","name":"seller","type":"address"},{"internalType":"uint128","name":"price","type":"uint128"},{"internalType":"uint256","name":"duration","type":"uint256"},{"internalType":"uint256","name":"maxBid","type":"uint256"},{"internalType":"address","name":"maxBidUser","type":"address"},{"internalType":"bool","name":"isActive","type":"bool"},{"internalType":"uint256[]","name":"bidAmounts","type":"uint256[]"},{"internalType":"address[]","name":"users","type":"address[]"}],"internalType":"struct Auction.tokenDetails","name":"","type":"tuple"}],"stateMutability":"view","type":"function"},{"inputs":[{"internalType":"address","name":"","type":"address"},{"internalType":"address","name":"","type":"address"},{"internalType":"uint256","name":"","type":"uint256"},{"internalType":"bytes","name":"","type":"bytes"}],"name":"onERC721Received","outputs":[{"internalType":"bytes4","name":"","type":"bytes4"}],"stateMutability":"nonpayable","type":"function"},{"inputs":[{"internalType":"address","name":"","type":"address"},{"internalType":"uint256","name":"","type":"uint256"}],"name":"tokenToAuction","outputs":[{"internalType":"address","name":"seller","type":"address"},{"internalType":"uint128","name":"price","type":"uint128"},{"internalType":"uint256","name":"duration","type":"uint256"},{"internalType":"uint256","name":"maxBid","type":"uint256"},{"internalType":"address","name":"maxBidUser","type":"address"},{"internalType":"bool","name":"isActive","type":"bool"}],"stateMutability":"view","type":"function"},{"stateMutability":"payable","type":"receive"}]}