{"address":"0x5FbDB2315678afecb367f032d93F642f64180aa3","bytecode":"0x60806040523480156200001157600080fd5b5060405162001beb38038062001beb8339810160408190526200003491620001c4565b604080518082018252600f81526e596f7572436f6c6c65637469626c6560881b6020808301918252835180850190945260038452622ca1a160e91b90840152815191929162000086916000916200011e565b5080516200009c9060019060208401906200011e565b50505060005b81518110156200011657600160086000848481518110620000d357634e487b7160e01b600052603260045260246000fd5b6020026020010151815260200190815260200160002060006101000a81548160ff02191690831515021790555080806200010d90620002c6565b915050620000a2565b505062000304565b8280546200012c9062000289565b90600052602060002090601f0160209004810192826200015057600085556200019b565b82601f106200016b57805160ff19168380011785556200019b565b828001600101855582156200019b579182015b828111156200019b5782518255916020019190600101906200017e565b50620001a9929150620001ad565b5090565b5b80821115620001a95760008155600101620001ae565b60006020808385031215620001d7578182fd5b82516001600160401b0380821115620001ee578384fd5b818501915085601f83011262000202578384fd5b815181811115620002175762000217620002ee565b83810260405185828201018181108582111715620002395762000239620002ee565b604052828152858101935084860182860187018a101562000258578788fd5b8795505b838610156200027c5780518552600195909501949386019386016200025c565b5098975050505050505050565b6002810460018216806200029e57607f821691505b60208210811415620002c057634e487b7160e01b600052602260045260246000fd5b50919050565b6000600019821415620002e757634e487b7160e01b81526011600452602481fd5b5060010190565b634e487b7160e01b600052604160045260246000fd5b6118d780620003146000396000f3fe608060405234801561001057600080fd5b50600436106101005760003560e01c806395d89b4111610097578063b88d4fde11610066578063b88d4fde14610212578063c754584914610225578063c87b56dd14610238578063e985e9c51461024b57610100565b806395d89b41146101d1578063a22cb465146101d9578063ae374b99146101ec578063b7416f2a146101ff57610100565b806323b872dd116100d357806323b872dd1461017857806342842e0e1461018b5780636352211e1461019e57806370a08231146101b157610100565b806301ffc9a71461010557806306fdde031461012e578063081812fc14610143578063095ea7b314610163575b600080fd5b610118610113366004611150565b61025e565b6040516101259190611296565b60405180910390f35b6101366102a6565b60405161012591906112a1565b610156610151366004611138565b610338565b6040516101259190611245565b61017661017136600461110f565b610384565b005b610176610186366004611021565b61041c565b610176610199366004611021565b610454565b6101566101ac366004611138565b61046f565b6101c46101bf366004610fd5565b6104a4565b6040516101259190611764565b6101366104e8565b6101766101e73660046110d5565b6104f7565b6101186101fa366004611138565b6105c5565b6101c461020d366004611138565b6105da565b61017661022036600461105c565b6105ec565b6101c4610233366004611188565b61062b565b610136610246366004611138565b6106e0565b610118610259366004610fef565b610801565b60006001600160e01b031982166380ac58cd60e01b148061028f57506001600160e01b03198216635b5e139f60e01b145b8061029e575061029e8261082f565b90505b919050565b6060600080546102b5906117dc565b80601f01602080910402602001604051908101604052809291908181526020018280546102e1906117dc565b801561032e5780601f106103035761010080835404028352916020019161032e565b820191906000526020600020905b81548152906001019060200180831161031157829003601f168201915b5050505050905090565b600061034382610848565b6103685760405162461bcd60e51b815260040161035f906115c8565b60405180910390fd5b506000908152600460205260409020546001600160a01b031690565b600061038f8261046f565b9050806001600160a01b0316836001600160a01b031614156103c35760405162461bcd60e51b815260040161035f906116d2565b806001600160a01b03166103d5610865565b6001600160a01b031614806103f157506103f181610259610865565b61040d5760405162461bcd60e51b815260040161035f90611404565b6104178383610869565b505050565b61042d610427610865565b826108d7565b6104495760405162461bcd60e51b815260040161035f90611713565b610417838383610954565b610417838383604051806020016040528060008152506105ec565b6000818152600260205260408120546001600160a01b03168061029e5760405162461bcd60e51b815260040161035f906114ab565b60006001600160a01b0382166104cc5760405162461bcd60e51b815260040161035f90611461565b506001600160a01b031660009081526003602052604090205490565b6060600180546102b5906117dc565b6104ff610865565b6001600160a01b0316826001600160a01b031614156105305760405162461bcd60e51b815260040161035f90611381565b806005600061053d610865565b6001600160a01b03908116825260208083019390935260409182016000908120918716808252919093529120805460ff191692151592909217909155610581610865565b6001600160a01b03167f17307eab39ab6107e8899845ad3d59bd9653f200f220920489ca2b5937696c31836040516105b99190611296565b60405180910390a35050565b60086020526000908152604090205460ff1681565b60096020526000908152604090205481565b6105fd6105f7610865565b836108d7565b6106195760405162461bcd60e51b815260040161035f90611713565b61062584848484610a81565b50505050565b6000808260405160200161063f91906111fa565b60408051601f1981840301815291815281516020928301206000818152600890935291205490915060ff166106865760405162461bcd60e51b815260040161035f90611614565b6000818152600860205260409020805460ff191690556106a66007610ab4565b60006106b26007610abd565b90506106be3382610ac1565b6106c88185610ba0565b60009182526009602052604090912081905592915050565b60606106eb82610848565b6107075760405162461bcd60e51b815260040161035f90611577565b60008281526006602052604081208054610720906117dc565b80601f016020809104026020016040519081016040528092919081815260200182805461074c906117dc565b80156107995780601f1061076e57610100808354040283529160200191610799565b820191906000526020600020905b81548152906001019060200180831161077c57829003601f168201915b5050505050905060006107aa610be4565b90508051600014156107be575090506102a1565b8151156107f05780826040516020016107d8929190611216565b604051602081830303815290604052925050506102a1565b6107f984610bf6565b949350505050565b6001600160a01b03918216600090815260056020908152604080832093909416825291909152205460ff1690565b6001600160e01b031981166301ffc9a760e01b14919050565b6000908152600260205260409020546001600160a01b0316151590565b3390565b600081815260046020526040902080546001600160a01b0319166001600160a01b038416908117909155819061089e8261046f565b6001600160a01b03167f8c5be1e5ebec7d5bd14f71427d1e84f3dd0314c0f7b2291e5b200ac8c7c3b92560405160405180910390a45050565b60006108e282610848565b6108fe5760405162461bcd60e51b815260040161035f906113b8565b60006109098361046f565b9050806001600160a01b0316846001600160a01b031614806109445750836001600160a01b031661093984610338565b6001600160a01b0316145b806107f957506107f98185610801565b826001600160a01b03166109678261046f565b6001600160a01b03161461098d5760405162461bcd60e51b815260040161035f9061163a565b6001600160a01b0382166109b35760405162461bcd60e51b815260040161035f9061133d565b6109be838383610417565b6109c9600082610869565b6001600160a01b03831660009081526003602052604081208054600192906109f2908490611799565b90915550506001600160a01b0382166000908152600360205260408120805460019290610a2090849061176d565b909155505060008181526002602052604080822080546001600160a01b0319166001600160a01b0386811691821790925591518493918716917fddf252ad1be2c89b69c2b068fc378daa952ba7f163c4a11628f55a4df523b3ef91a4505050565b610a8c848484610954565b610a9884848484610c79565b6106255760405162461bcd60e51b815260040161035f906112b4565b80546001019055565b5490565b6001600160a01b038216610ae75760405162461bcd60e51b815260040161035f90611542565b610af081610848565b15610b0d5760405162461bcd60e51b815260040161035f90611306565b610b1960008383610417565b6001600160a01b0382166000908152600360205260408120805460019290610b4290849061176d565b909155505060008181526002602052604080822080546001600160a01b0319166001600160a01b03861690811790915590518392907fddf252ad1be2c89b69c2b068fc378daa952ba7f163c4a11628f55a4df523b3ef908290a45050565b610ba982610848565b610bc55760405162461bcd60e51b815260040161035f906114f4565b6000828152600660209081526040909120825161041792840190610eb5565b60408051602081019091526000815290565b6060610c0182610848565b610c1d5760405162461bcd60e51b815260040161035f90611683565b6000610c27610be4565b90506000815111610c475760405180602001604052806000815250610c72565b80610c5184610d94565b604051602001610c62929190611216565b6040516020818303038152906040525b9392505050565b6000610c8d846001600160a01b0316610eaf565b15610d8957836001600160a01b031663150b7a02610ca9610865565b8786866040518563ffffffff1660e01b8152600401610ccb9493929190611259565b602060405180830381600087803b158015610ce557600080fd5b505af1925050508015610d15575060408051601f3d908101601f19168201909252610d129181019061116c565b60015b610d6f573d808015610d43576040519150601f19603f3d011682016040523d82523d6000602084013e610d48565b606091505b508051610d675760405162461bcd60e51b815260040161035f906112b4565b805181602001fd5b6001600160e01b031916630a85bd0160e11b1490506107f9565b506001949350505050565b606081610db957506040805180820190915260018152600360fc1b60208201526102a1565b8160005b8115610de35780610dcd81611817565b9150610ddc9050600a83611785565b9150610dbd565b60008167ffffffffffffffff811115610e0c57634e487b7160e01b600052604160045260246000fd5b6040519080825280601f01601f191660200182016040528015610e36576020820181803683370190505b5090505b84156107f957610e4b600183611799565b9150610e58600a86611832565b610e6390603061176d565b60f81b818381518110610e8657634e487b7160e01b600052603260045260246000fd5b60200101906001600160f81b031916908160001a905350610ea8600a86611785565b9450610e3a565b3b151590565b828054610ec1906117dc565b90600052602060002090601f016020900481019282610ee35760008555610f29565b82601f10610efc57805160ff1916838001178555610f29565b82800160010185558215610f29579182015b82811115610f29578251825591602001919060010190610f0e565b50610f35929150610f39565b5090565b5b80821115610f355760008155600101610f3a565b600067ffffffffffffffff80841115610f6957610f69611872565b604051601f8501601f191681016020018281118282101715610f8d57610f8d611872565b604052848152915081838501861015610fa557600080fd5b8484602083013760006020868301015250509392505050565b80356001600160a01b03811681146102a157600080fd5b600060208284031215610fe6578081fd5b610c7282610fbe565b60008060408385031215611001578081fd5b61100a83610fbe565b915061101860208401610fbe565b90509250929050565b600080600060608486031215611035578081fd5b61103e84610fbe565b925061104c60208501610fbe565b9150604084013590509250925092565b60008060008060808587031215611071578081fd5b61107a85610fbe565b935061108860208601610fbe565b925060408501359150606085013567ffffffffffffffff8111156110aa578182fd5b8501601f810187136110ba578182fd5b6110c987823560208401610f4e565b91505092959194509250565b600080604083850312156110e7578182fd5b6110f083610fbe565b915060208301358015158114611104578182fd5b809150509250929050565b60008060408385031215611121578182fd5b61112a83610fbe565b946020939093013593505050565b600060208284031215611149578081fd5b5035919050565b600060208284031215611161578081fd5b8135610c7281611888565b60006020828403121561117d578081fd5b8151610c7281611888565b600060208284031215611199578081fd5b813567ffffffffffffffff8111156111af578182fd5b8201601f810184136111bf578182fd5b6107f984823560208401610f4e565b600081518084526111e68160208601602086016117b0565b601f01601f19169290920160200192915050565b6000825161120c8184602087016117b0565b9190910192915050565b600083516112288184602088016117b0565b83519083019061123c8183602088016117b0565b01949350505050565b6001600160a01b0391909116815260200190565b6001600160a01b038581168252841660208201526040810183905260806060820181905260009061128c908301846111ce565b9695505050505050565b901515815260200190565b600060208252610c7260208301846111ce565b60208082526032908201527f4552433732313a207472616e7366657220746f206e6f6e20455243373231526560408201527131b2b4bb32b91034b6b83632b6b2b73a32b960711b606082015260800190565b6020808252601c908201527f4552433732313a20746f6b656e20616c7265616479206d696e74656400000000604082015260600190565b60208082526024908201527f4552433732313a207472616e7366657220746f20746865207a65726f206164646040820152637265737360e01b606082015260800190565b60208082526019908201527f4552433732313a20617070726f766520746f2063616c6c657200000000000000604082015260600190565b6020808252602c908201527f4552433732313a206f70657261746f7220717565727920666f72206e6f6e657860408201526b34b9ba32b73a103a37b5b2b760a11b606082015260800190565b60208082526038908201527f4552433732313a20617070726f76652063616c6c6572206973206e6f74206f7760408201527f6e6572206e6f7220617070726f76656420666f7220616c6c0000000000000000606082015260800190565b6020808252602a908201527f4552433732313a2062616c616e636520717565727920666f7220746865207a65604082015269726f206164647265737360b01b606082015260800190565b60208082526029908201527f4552433732313a206f776e657220717565727920666f72206e6f6e657869737460408201526832b73a103a37b5b2b760b91b606082015260800190565b6020808252602e908201527f45524337323155524953746f726167653a2055524920736574206f66206e6f6e60408201526d32bc34b9ba32b73a103a37b5b2b760911b606082015260800190565b6020808252818101527f4552433732313a206d696e7420746f20746865207a65726f2061646472657373604082015260600190565b60208082526031908201527f45524337323155524953746f726167653a2055524920717565727920666f72206040820152703737b732bc34b9ba32b73a103a37b5b2b760791b606082015260800190565b6020808252602c908201527f4552433732313a20617070726f76656420717565727920666f72206e6f6e657860408201526b34b9ba32b73a103a37b5b2b760a11b606082015260800190565b6020808252600c908201526b4e4f5420464f522053414c4560a01b604082015260600190565b60208082526029908201527f4552433732313a207472616e73666572206f6620746f6b656e2074686174206960408201526839903737ba1037bbb760b91b606082015260800190565b6020808252602f908201527f4552433732314d657461646174613a2055524920717565727920666f72206e6f60408201526e3732bc34b9ba32b73a103a37b5b2b760891b606082015260800190565b60208082526021908201527f4552433732313a20617070726f76616c20746f2063757272656e74206f776e656040820152603960f91b606082015260800190565b60208082526031908201527f4552433732313a207472616e736665722063616c6c6572206973206e6f74206f6040820152701ddb995c881b9bdc88185c1c1c9bdd9959607a1b606082015260800190565b90815260200190565b6000821982111561178057611780611846565b500190565b6000826117945761179461185c565b500490565b6000828210156117ab576117ab611846565b500390565b60005b838110156117cb5781810151838201526020016117b3565b838111156106255750506000910152565b6002810460018216806117f057607f821691505b6020821081141561181157634e487b7160e01b600052602260045260246000fd5b50919050565b600060001982141561182b5761182b611846565b5060010190565b6000826118415761184161185c565b500690565b634e487b7160e01b600052601160045260246000fd5b634e487b7160e01b600052601260045260246000fd5b634e487b7160e01b600052604160045260246000fd5b6001600160e01b03198116811461189e57600080fd5b5056fea26469706673582212207947008ce6f5e318cfb0a4ad7c2802f9e7004183c7e731f0133c162786b5516a64736f6c63430008000033","abi":[{"inputs":[{"internalType":"bytes32[]","name":"assetsForSale","type":"bytes32[]"}],"stateMutability":"nonpayable","type":"constructor"},{"anonymous":false,"inputs":[{"indexed":true,"internalType":"address","name":"owner","type":"address"},{"indexed":true,"internalType":"address","name":"approved","type":"address"},{"indexed":true,"internalType":"uint256","name":"tokenId","type":"uint256"}],"name":"Approval","type":"event"},{"anonymous":false,"inputs":[{"indexed":true,"internalType":"address","name":"owner","type":"address"},{"indexed":true,"internalType":"address","name":"operator","type":"address"},{"indexed":false,"internalType":"bool","name":"approved","type":"bool"}],"name":"ApprovalForAll","type":"event"},{"anonymous":false,"inputs":[{"indexed":true,"internalType":"address","name":"from","type":"address"},{"indexed":true,"internalType":"address","name":"to","type":"address"},{"indexed":true,"internalType":"uint256","name":"tokenId","type":"uint256"}],"name":"Transfer","type":"event"},{"inputs":[{"internalType":"address","name":"to","type":"address"},{"internalType":"uint256","name":"tokenId","type":"uint256"}],"name":"approve","outputs":[],"stateMutability":"nonpayable","type":"function"},{"inputs":[{"internalType":"address","name":"owner","type":"address"}],"name":"balanceOf","outputs":[{"internalType":"uint256","name":"","type":"uint256"}],"stateMutability":"view","type":"function"},{"inputs":[{"internalType":"bytes32","name":"","type":"bytes32"}],"name":"forSale","outputs":[{"internalType":"bool","name":"","type":"bool"}],"stateMutability":"view","type":"function"},{"inputs":[{"internalType":"uint256","name":"tokenId","type":"uint256"}],"name":"getApproved","outputs":[{"internalType":"address","name":"","type":"address"}],"stateMutability":"view","type":"function"},{"inputs":[{"internalType":"address","name":"owner","type":"address"},{"internalType":"address","name":"operator","type":"address"}],"name":"isApprovedForAll","outputs":[{"internalType":"bool","name":"","type":"bool"}],"stateMutability":"view","type":"function"},{"inputs":[{"internalType":"string","name":"tokenURI","type":"string"}],"name":"mintItem","outputs":[{"internalType":"uint256","name":"","type":"uint256"}],"stateMutability":"nonpayable","type":"function"},{"inputs":[],"name":"name","outputs":[{"internalType":"string","name":"","type":"string"}],"stateMutability":"view","type":"function"},{"inputs":[{"internalType":"uint256","name":"tokenId","type":"uint256"}],"name":"ownerOf","outputs":[{"internalType":"address","name":"","type":"address"}],"stateMutability":"view","type":"function"},{"inputs":[{"internalType":"address","name":"from","type":"address"},{"internalType":"address","name":"to","type":"address"},{"internalType":"uint256","name":"tokenId","type":"uint256"}],"name":"safeTransferFrom","outputs":[],"stateMutability":"nonpayable","type":"function"},{"inputs":[{"internalType":"address","name":"from","type":"address"},{"internalType":"address","name":"to","type":"address"},{"internalType":"uint256","name":"tokenId","type":"uint256"},{"internalType":"bytes","name":"_data","type":"bytes"}],"name":"safeTransferFrom","outputs":[],"stateMutability":"nonpayable","type":"function"},{"inputs":[{"internalType":"address","name":"operator","type":"address"},{"internalType":"bool","name":"approved","type":"bool"}],"name":"setApprovalForAll","outputs":[],"stateMutability":"nonpayable","type":"function"},{"inputs":[{"internalType":"bytes4","name":"interfaceId","type":"bytes4"}],"name":"supportsInterface","outputs":[{"internalType":"bool","name":"","type":"bool"}],"stateMutability":"view","type":"function"},{"inputs":[],"name":"symbol","outputs":[{"internalType":"string","name":"","type":"string"}],"stateMutability":"view","type":"function"},{"inputs":[{"internalType":"uint256","name":"tokenId","type":"uint256"}],"name":"tokenURI","outputs":[{"internalType":"string","name":"","type":"string"}],"stateMutability":"view","type":"function"},{"inputs":[{"internalType":"address","name":"from","type":"address"},{"internalType":"address","name":"to","type":"address"},{"internalType":"uint256","name":"tokenId","type":"uint256"}],"name":"transferFrom","outputs":[],"stateMutability":"nonpayable","type":"function"},{"inputs":[{"internalType":"bytes32","name":"","type":"bytes32"}],"name":"uriToTokenId","outputs":[{"internalType":"uint256","name":"","type":"uint256"}],"stateMutability":"view","type":"function"}]}